:0618080000008C310C2CE5
:101810007E148C317E10090020008C310F2C653035
:101820008400003085000B309B31B4238C31A7300D
:101830008400003085002B309B31B4238C317E1026
:1018400020009C317D2CF30020000C0E01399B31CF
:10185000BA238C31F100730A8600870101087106F2
:10186000FE397106810020000C0E890C01399B3174
:10187000BA238C31F100730A86008701F10D01084B
:101880007106FD397106810021004119482C492C4F
:10189000942C20000E0CF100F10C710C01399B31DD
:1018A000BA238C31F200730886008701F20D01081B
:1018B0007206FD39720681007308860087010110E7
:1018C00020000E0E890C890C01399B31BA238C3112
:1018D000F100730886008701F10DF10D0108710612
:1018E000FB39710681007308860087018111730836
:1018F0008600870101127308860087018112730830
:101900008600870101137308860087018113730A1B
:10191000860087010111730A860087018111730A0D
:10192000860087010112E22C411D972C982CE22C95
:10193000730886008701811020000E0CF100F10C65
:10194000710C01399B31BA238C31F2007308860087
:10195000870101087206FE3972068100730886004D
:101960008701011120000E0E890C890C01399B3171
:10197000BA238C31F100730886008701F10DF10D57
:10198000F10D01087106F7397106810073088600B0
:10199000870101127308860087018112730886008F
:1019A000870101137308860087018113730A86007B
:1019B00087010111730A860087018111730A86006D
:1019C0008701011220000E0D0E0D01399B31BA2343
:1019D0008C31003A0319ED2CEE2CF42C7308033EE5
:1019E000860087018101122D20000D0E890C890CC3
:1019F00001399B31BA238C31003A0319002D012D96
:101A00000A2DFF30F1007308033E8600870171083C
:101A10008100122D8030F1007308033E860087019B
:101A20007108810020000D0E890C01399B31BA2309
:101A30008C31003A03191D2D1E2D242D7308043EF0
:101A4000860087018101412D20000D0D0D0D01390A
:101A50009B31BA238C31003A03192F2D302D392DAB
:101A6000FF30F1007308043E860087017108810091
:101A7000412D8030F1007308043E86008701710813
:101A800081000830F1007308023E8600870171086A
:101A900081008030F1007308053E860087017108DF
:101AA00081008030F1007308063E860087017108CE
:101AB00081006E2E7308033E860087010108031D16
:101AC000622D632D762D7308043E860087018030D9
:101AD0000106031D6C2D6D2D762D7308023E8600C8
:101AE00087010108F03906388100342E7308033E5F
:101AF000860087010108031D7E2D7F2D912D73081F
:101B0000043E860087010108031D872D882D912D35
:101B10007308023E860087010108F039073881000A
:101B2000342E7308033E8600870180300106031DB2
:101B30009A2D9B2DAB2D7308043E8600870101086A
:101B4000031DA32DA42DAB2D7308023E8600870133
:101B5000F0308105342E7308033E86008701010AA8
:101B6000031DB32DB42DC62D7308043E86008701D6
:101B70000108031DBC2DBD2DC62D7308023E860035
:101B800087010108F03901388100342E7308033EC3
:101B900086008701010A031DCE2DCF2DE22D73088B
:101BA000043E8600870180300106031DD82DD92D03
:101BB000E22D7308023E860087010108F0390238E1
:101BC0008100342E7308033E86008701010A031D3D
:101BD000EA2DEB2DFD2D7308043E86008701010AD6
:101BE000031DF32DF42DFD2D7308023E86008701A1
:101BF0000108F03903388100342E7308033E860053
:101C0000870180300106031D062E072E192E73084A
:101C1000043E86008701010A031D0F2E102E192E87
:101C20007308023E860087010108F03904388100FC
:101C3000342E7308033E860087010108031D212E00
:101C4000222E342E7308043E86008701010A031DEC
:101C50002A2E2B2E342E7308023E8600870101089F
:101C6000F03905388100342E8030F1007308033ECE
:101C700086008701710881008030F1007308043EFE
:101C80008600870171088100832E7308033E860059
:101C900087010108F1007308053E8600870171087D
:101CA00081007308043E860087010108F100730873
:101CB000063E86008701710881008030F1007308BC
:101CC000033E86008701710881008030F1007308AF
:101CD000043E8600870171088100832E210041089F
:101CE0000339F100F2017208003A0319782E832EAD
:101CF0007108003A03195A2D013A0319832E033A49
:101D00000319452E832E080020004203031D892E4F
:101D10008A2EA02E40081F39003A031D902E912EC6
:101D2000A02E2100B017033020004106031D992E7C
:101D30009A2E9E2E2100CB01CB0AA02E2100CB0192
:101D400020004208031DA52EA62ED12F40081F39C2
:101D5000023A031DAC2EAD2ED12F44080F39003AA4
:101D60000319B32EB42ED12F44080F39D6000230F8
:101D700056020318BC2EBD2ED12F20306E06031D37
:101D8000C22EC32ED12F2100B0172000C41BC92E94
:101D9000CA2EDE2E44080F390907B73E8600870198
:101DA000403FDB00413FDC0044080F39BD3E860068
:101DB00087010108D6005608DA00F12E44080F39D1
:101DC0000907653E86008701403FDB00413FDC009C
:101DD00044080F39BF3E860087010108D600560827
:101DE000DA005A18F42EF52E002FFB30D600FF3003
:101DF000D7005B085605DB005C085705DC00062FA2
:101E000004305B04DB0000305C04DC00C41B092FE1
:101E10000A2F152F44080F390907B73E860087019E
:101E20005B08C03F5C08C13F1F2F44080F390907FA
:101E3000653E860087015B08C03F5C08C13F0330F8
:101E40004106031D242F252F492F5B0886005C08BF
:101E50008700811F2C2F2D2F3E2FC41B302F312F99
:101E6000382F44080F39BD3E8600870181143E2F6C
:101E700044080F39BF3E8600870181145B08860045
:101E80005C08870001155B0886005C0887008117E5
:101E9000D12F04305B06DB0000305C06DC005B0801
:101EA00086005C088700811F562F572F742F7F30C4
:101EB000D6005B0886005C088700560881055B0831
:101EC00086005C08870001170530D0000030D10083
:101ED0005C08D3005B08D2000230D4000030D5008B
:101EE0009D312A258E31792F5B0886005C0887009A
:101EF0000117043020005B06DB0000305C06DC00CC
:101F0000DA18832F842F8C2F5B0886005C088700EB
:101F1000811F8B2F8C2FB52FC41B8F2F902F972FA6
:101F200044080F39BD3E8600870181109D2F44086B
:101F30000F39BF3E8600870181103B30D6005B0819
:101F400086005C088700560881050530D000003007
:101F5000D1005C08D3005B08D2000230D40000300E
:101F6000D5009D312A258E31BD2F3B30D6005B0830
:101F700086005C08870056088105200044080F3958
:101F8000983ED600D7010E30D73D5608D8005708E6
:101F9000D900FE30D6005808860059088700560838
:101FA00081050800F8007108F6007008F50078084F
:101FB000F4007408F900F32F75088600760887008E
:101FC0000108F4007408F7000130F5070030F63D11
:101FD0007708F400790886008701740881000130D1
:101FE000F4007408F9070130F2020030F33B720A82
:101FF000031DFE2F730A031DFE2FFF2FDC2F080089
:102004003D001215EF302000D60056083D00900523
:102014008E142100CA01CA0AC20175302000D00002
:102024000030D1000030D2000030D3000030D400A2
:10203400D5009D312A259031080021004608031D52
:102044002428252895280130F0007008C60045088A
:10205400031D2D282E2895280130F0007008C50096
:10206400023020006C06031D382839284B286508E7
:10207400860066088700413181016508860066088C
:10208400870048308100650886006608870081174C
:1020940095286C03031D4F28502895282100C8015A
:1020A4000830F00020006D0A860087017008810066
:1020B4004030F0000030F1006D08023E86008701D8
:1020C4007008C03F7108C13F0430F0006D088600FD
:1020D4008701700881006D0886008701811721003F
:1020E400C801C80A20006908013EF00000306A3DBA
:1020F400F1007008860071088700083081004030C4
:10210400F0000030F100690886006A088700423157
:102114007008C03F7108C13F690886006A088700DB
:102124008030810095280800200065088600660834
:1021340087000030011B0130F50004306506E5001E
:1021440000306606E60008306E06031DAA28AB2898
:10215400BF2842087F393D00960016080319B328AA
:10216400B428BA281030F30073082000EE00BF280A
:102174000430F30073082000EE006C03031DC32831
:10218400C42807294830F3000030F40065088600AD
:102194006608870042317308C03F7408C13F9F310D
:1021A40089279031023021004D06031DDA28DB28EF
:1021B400E82820006508860066088700043081004E
:1021C400650886006608870081170F297508031DB6
:1021D400EC28ED28FA2820006508860066088700A8
:1021E40048308100650886006608870081170F293A
:1021F40020006508860066088700083081006508AD
:1022040086006608870081170F292100A91F0B2962
:102214000C290D29A9132000EC0108002000400E10
:10222400890C0339003A0319182919295E298929C7
:102234002100B01708302000DD005D08EE00892978
:1022440092318B229131892991318A2191318929C5
:10225400D1302100AE000030AF003014B101B10A1A
:10226400B01789299E31AA26913189298E31842675
:10227400913189294408D03E2100AE000030AF00DE
:102284002F292100B01720004208DD004408D03E69
:10229400860087015D08810089290230D000003062
:1022A400D1000030D2000030D3000030D400D5007B
:1022B4009D312A25913189294108DD00DE015E081E
:1022C400003A0319662989295D08003A031934295B
:1022D400013A03193829023A03193829063A03192D
:1022E4001A29033A03192229013A03194F290F3AEB
:1022F40003192A29013A03192629033A03193C2907
:10230400013A03194329073A03198929892908003D
:102314002100B0170E302000D8009930D700D90121
:10232400570886005808870081010130D70700301C
:10233400D83D0130D6005608D90759080319A329F6
:10234400A42992290030F000F1002030F20000307E
:10235400F30020309431352491313D000E172000D4
:10236400DA015A08BF3E8600870181015A08BD3E42
:102374008600870181010130D6005608DA07023051
:102384005A02031CC629C729B3290030F000F10002
:102394000130F2000030F300D03094313524913113
:1023A4003D000E1328302000E5000030E600203008
:1023B400D6005608ED006D08E900FF39031D003012
:1023C400EA004208D60056082100D1005108031D36
:1023D400EC29ED29F32910302000D6005608EE0030
:1023E400082A01302000D0000030D100D130D200C2
:1023F4000030D3000130D4000030D5009D312A25AF
:10240400913120302000D6005608EE000800F70075
:10241400700803190E2A0F2A182A7735653E86009C
:102424008701403FF800413FF900202A7735B73E45
:1024340086008701403FF800413FF900780879049D
:10244400031D252A262A292AF001F1018A2A710866
:10245400F3000030F40078088600790887004231E0
:102464007308C03F7408C13F7808013EF300003090
:10247400793DF400730886007408870072088100AF
:102484004030F300780886007908870073088105D6
:10249400780886007908870081157808860079080D
:1024A4008700811770080319582A592A702A77352A
:1024B400653E86008701403FF300413FF40004304D
:1024C4007306F50000307406F6007735653E860025
:1024D40087017508C03F7608C13F862A7735B73E25
:1024E40086008701403FF300413FF4000430730647
:1024F400F50000307406F6007735B73E8600870194
:102504007508C03F7608C13F7908F1007808F000EB
:102514000800803020004006031D912A922A0F2BC8
:10252400C030F00070082100B000FB2ABE3021004A
:10253400AE009830AF001230B1000030B2000F2B63
:102544004208031DA62AA72AD62A4208F000F10150
:10255400F035F10DDA30700784009830713D850054
:10256400003F2100AE00013FAF002F08F1002E080C
:10257400F00002307007840071080318710A8500A6
:102584000008F2007208B1002F08F1002E08F000D4
:1025940003307007840071080318710A850000086D
:1025A400F2007208B2000F2B2100B0010F2B033090
:1025B40042020318DE2ADF2AD62A4208F000F1017B
:1025C400F035F10DD030700784009830713D8500EE
:1025D400003F2100AE00013FAF002E0884002F0809
:1025E40085000008F000F1017008B1007108B20024
:1025F4000F2B20004308F000F1017108003A031981
:10260400042BD62A7008013A0319982A033A0319AD
:10261400A22A013A0319D92AD62A080020000C0E4E
:1026240001399B31BA239331003A03191A2B1B2B1E
:10263400962B20000E0D0E0D01399B31BA239331D8
:10264400003A0319262B272B962B0B11053020005B
:102654009500F301F4017F2B0B1D312B322B7F2BC3
:102664000130F3070030F43D00307402FA300319EE
:102674007302031C3E2B3F2B7B2B4D2B4108FC3953
:102684000138C100622B4108FC390238C100622BB9
:10269400FC30C105622B210041080339F100F2012D
:1026A4007208003A0319572B622B7108003A031978
:1026B400402B013A0319452B033A03194A2B622B89
:1026C400F301F40120000C0E01399B31BA2393313C
:1026D400003A03196E2B6F2B7B2B20000E0D0E0D71
:1026E40001399B31BA239331003A031D7A2B7B2B9A
:1026F400642B0B1105302000950020000C0E0139CD
:102704009B31BA239331003A0319892B8A2B962BD8
:1027140020000E0D0E0D01399B31BA239331003A7E
:10272400031D952B962B2E2B08003D000E12210025
:10273400B01B9D2B9E2BE52BA91FA12BA22BB42BE9
:102744000230F50075082000EC0021004308031D49
:10275400AC2BAD2BB02B9E31492693312100C50102
:10276400C601342C20006908013EF50000306A3DA2
:10277400F60075088600760887000830810040302E
:10278400F5000030F600690886006A0887004231C7
:102794007508C03F7608C13F690886006A0887004B
:1027A4000C308100690886006A0887008117650873
:1027B4008600660887000430810065088600660884
:1027C40087008117342C2000C01FE92BEA2B022C30
:1027D400EC01EC0A21004408031DF12BF22BF52B2C
:1027E4009E31492693312100C501C60120006B08A2
:1027F400031DFD2BFE2B342C90311F209331342CE0
:102804000230F5007508EC006908013EF50000305F
:102814006A3DF60075088600760887000830810056
:102824004030F5000030F600690886006A08870029
:1028340042317508C03F7608C13F690886006A08BE
:10284400870004308100690886006A0887008117C0
:102854002100C501C60120006B08031D322C332C56
:10286400342CFE2B0800F8007808F4007408F900F2
:1028740072087304031D3F2C402C412CD82C700883
:10288400F400790886008701740881007008F40058
:1028940072087907F5007508FF3E86008701740801
:1028A40081000030730203300319720203185B2C99
:1028B4005C2C5D2CD82C7008F400790A8600870102
:1028C400740881007008F4007908023E86008701CC
:1028D400740881007008F40072087907F50075081F
:1028E400FE3E86008701740881007008F4007208B7
:1028F4007907F5007508FD3E86008701740881009C
:102904000030730207300319720203188A2C8B2CCF
:102914008C2CD82C7008F4007908033E86008701BB
:10292400740881007008F40072087907F5007508CE
:10293400FC3E860087017408810000307302093070
:10294400031972020318A72CA82CA92CD82C7909D6
:10295400F4007A09F500F40A0319F50A0330740542
:10296400F60000307505F7007608F4007408F907DE
:102974007608F2027708F33BFC30F205FF30F305EA
:10298400D22C7008F400790886008701740881004D
:102994000130F2020030F33B0130F4007408F9070F
:1029A40072087304031DD72CD82CC32C08002100F3
:1029B40012113D009301900198010E30F2009930FC
:1029C400F100F3017108860072088700810101306B
:1029D400F1070030F23D0130F0007008F30773088E
:1029E4000319F52CF62CE42C16303D0091009F3091
:1029F40097007B309200F4017408F0000130F03548
:102A0400FF3E031D012D7035203E860087010030F6
:102A1400C03F0030C13FC23FC33F0130F0007008E7
:102A2400F40708307402031C182D192DFE2C3D00E8
:102A34000E1796010E120E13F730F0007008900571
:102A44002100B001A901AA01AB013D0090192B2D71
:102A54002C2D1E2D0130F00070082100C60001301D
:102A6400F0007008C500C401C301CA01F401743543
:102A7400653E860087010030C03FC13F7435B73ED4
:102A8400860087010030C03FC13F7408BF3E860006
:102A9400870181017408BD3E8600870181010130F0
:102AA400F0007008F40702307402031C5A2D5B2DE9
:102AB400392D28302000E5000030E60016303D00B6
:102AC400980000302000A3004030A2000830A1008C
:102AD4000430F0007008A000A0172100D1010030DC
:102AE400B6000030B5000030B4000030B300C201BD
:102AF4002000EE010800200040081F39013A0319A4
:102B0400842D852D862D212E440803198A2D8B2D85
:102B14008C2D212E06304106031D912D922DC72D9B
:102B2400B42D21005103031D982D992DC72D9030EC
:102B3400AE009830AF000930B1000030B200C030B0
:102B4400F0007008B000C72D00302100AE009830AE
:102B5400AF004A30B1000030B200C030F00070085D
:102B6400B000C72D4308F000F1017108003A0319C1
:102B7400BC2DC72D7008213A0319932D033A03196C
:102B8400A62D013A0319C72DC72D2000400E890C2C
:102B94000339013A0319CF2DD02D052E212ECF3024
:102BA4002100AE000030AF000130B1000030B200AF
:102BB400C130F0007008B000212E8030F0007008A1
:102BC4002100B00020004308F00070082100CF006D
:102BD400212ECE302100AE000030AF000130B10014
:102BE4000030B2008130F0007008B000212E803037
:102BF400F00070082100B00020004208F0007008C6
:102C04002100CE00212E4108F000F1017108003AA4
:102C140003190D2E212E7008013A0319212E033AAF
:102C24000319D12D013A0319EB2D0A3A0319212E68
:102C3400033A0319DF2D013A0319F92D212E080057
:102C440020006D0886008701413FF5007508F200F9
:102C5400F301730821002B02031D322E72082A028D
:102C64000318352E362E3A2E2A08F2007208F50083
:102C74007508F200F3017208AA027308AB3BF40171
:102C8400562E7408483E860087010108F200270882
:102C940086008701720881000130F2007208A707DC
:102CA4000130F2007208F40775087402031C5B2EED
:102CB4005C2E432E2A082B040319612E622E9B2EB0
:102CC40020006908013EF20000306A3DF3007208FA
:102CD400860073088700083081004830F200003015
:102CE400F300690886006A08870042317208C03F11
:102CF4007308C13F6D0886008701011B822E832E55
:102D04008F2E690886006A088700483081006908A8
:102D140086006A0887008117CB2E690886006A0836
:102D2400870008308100690886006A0887008117D7
:102D3400CB2E20006908013EF20000306A3DF3000A
:102D44007208860073088700083081004030F20062
:102D54000030F300690886006A088700423172086F
:102D6400C03F7308C13F690886006A0887000430C1
:102D74008100690886006A08870081172100A91369
:102D840020006B08031DC72EC82ECB2E90311F20A8
:102D94009631080020006E08031DD12ED22EE42E99
:102DA4003D008E019201163091009F3097007B30D8
:102DB4009200DD2E8E158E1DE02EE12EDC2E2000DD
:102DC400EE01EE0A6E03031DE82EE92EF72E3D00F8
:102DD4008E1AED2EEE2EF72E900192011214121679
:102DE40002302000E2006208EE003D00101DFB2EC0
:102DF400FC2E092F121DFF2E002F092FFB3020005F
:102E0400E20062083D0090059C310B2496313D00A0
:102E14008E1C0D2F0E2F112F20001211FF2F101CAE
:102E2400142F152F262F121C182F192F262F9431EB
:102E3400D924963104302000E2006208EE00FE300E
:102E4400E20062083D009005101E292F2A2F312F21
:102E5400121E2D2F2E2F312F9031022096313D003E
:102E6400101F352F362F632F121F392F3A2F4A2F59
:102E740073302000D0000030D1000030D200003088
:102E8400D3000130D4000030D5009D312A2596317D
:102E9400BF302000E20062083D0090059B31D22340
:102EA4009631210047080319582F592F5B2F013001
:102EB400C7024708031D5F2F602F632F90311F2027
:102EC40096313D00901E672F682F6F2F921E6B2F37
:102ED4006C2F6F2F9C31522496313D00901C732F20
:102EE400742F8A2F921C772F782F8A2FFF3020007F
:102EF400D0007F30D1000030D2000030D300013048
:102F0400D4000030D5009D312A2596313D0093012F
:102F1400043020006E020318902F912F932F12116A
:102F2400FF2F3D00921D972F982FFD2F2000E401C5
:102F34003D00901D9E2F9F2FFD2F0F082000E200C3
:102F44006208EF006F0CE200E20C620C0F39E30040
:102F540063082100C900F7302000E20062083D0048
:102F6400900520006F19B72FB82FC92F21004908E9
:102F7400BD3E86008701010801392000E2000130CE
:102F8400E20601086206FE3962068100D92F21009B
:102F94004908BF3E86008701010801392000E2008C
:102FA4000130E20601086206FE3962068100210052
:102FB4004908031DDE2FDF2FE32F9D31F3259631C2
:102FC400F22F72302000D0000030D1006F30D200D8
:102FD4000030D3000030D400D5009D312A2596312D
:102FE40001302000E2006208E40704306402031C9C
:102FF400FC2FFD2F9A2F20001211080005340134F4
:1030040009340534A1340134153400342534013431
:1030140035340034453401347534013495340D3479
:10302400053409341934013429340D34813402341B
:1030340095340334813401340534013425340734A0
:1030440046343B34013475340434953401346534E6
:1030540014340934393481344234653400349534B9
:103064000134813401342634FF3400344634FF34CF
:1030740000340934303409343134093432340934F5
:103084003534753408349534043481340234C0340E
:10309400343403344D34003469340034633400343C
:1030A400723400346F3400346334003468340034D0
:1030B400693400347034003420340034543400341F
:1030C4006534003463340034683400346E340034BE
:1030D4006F3400346C3400346F340034673400349B
:1030E4007934003420340034493400346E340034EC
:1030F400633400342E34003409340234223400346E
:10310400013401340034C03432340934043400341A
:1031140000340134033400340034003409342134DD
:10312400113401340034013422344A340034073475
:103134000534813403344034003401341E34033400
:103144004E340034453400345734003420340034D1
:1031540046340034433400342034003447340034DB
:10316400613400346D340034653400347034003418
:1031740061340034643400341234013400340234D1
:103184000034003400340834D8340434EB34E534E7
:10319400013400340134023400340134D634983418
:1031A4004A349834A034983404340334093404344D
:0431B4007E34983499
:10375E00FC302100C10541110800640080010131D7
:10376E00890BB52B0034F00070080319BF2BC12B49
:10377E000130C22B003008002100BB01BC011A3001
:10378E00FD007D08F70001309C312D249B319B31CB
:10379E00AF239B31080001302100B3070030B43D48
:1037AE000030B53D0030B63D4A08031DDF2BE02B3F
:1037BE00ED2B0130F0007008C2074208031DE82B04
:1037CE00E92BED2BFF30F0007008C2000800F2006C
:1037DE00F72BFC3021009900903027009B000A2C1B
:1037EE007208F000F1017108003A0319FF2B0A2C40
:1037FE007008003A0319F02B013A03190A2C033A08
:10380E0003190A2C0A2C08002100CA01743020006A
:10381E00D0000030D1000030D2000030D300003094
:10382E00D400D5009D312A259C313D008E101211F9
:10383E00262CFB302000D60056083D0090051019AE
:10384E00292C2A2C202C2100C2010800FC00771DF7
:10385E00312C322C372CF0017C089D3166259C31A1
:10386E00F71C3A2C3B2C412CF001F00A7C089D31C0
:10387E0066259C317C08983EF800F9010E30F93D22
:10388E007808FA007908FB007A0886007B08870022
:10389E007708810008003D00181C562C572C782CF8
:1038AE0020006D088600870180300106031D602C04
:1038BE00612C762C65088600660887008430010628
:1038CE00031D6A2C6B2C762C0C30F0006D088600D4
:1038DE008701700881006D088600870181173D0001
:1038EE001810DF30F00070089005080000309B3192
:1038FE00EE239C319431D9249C31303021008C0040
:10390E00F0308D00FF308E00951324008C018D0158
:10391E0023008C018D018E01073021009504951135
:10392E001512951215178B1705302000950096313C
:10393E00CC269C31203020006E020318A72CA82C18
:10394E00A92C9E2C3D008E1CAD2CAE2CAF2C9E2C8B
:10395E009C31EF249C319E2C8C310C2C023020009B
:10396E006C06031DBB2CBC2CC02C963122269C3120
:10397E00EE2CEC0121004808031DC62CC72CED2CA3
:10398E0020006908013EF60000306A3DF700760817
:10399E00860077088700083081004030F60000303E
:1039AE00F700690886006A08870042317608C03F32
:1039BE007708C13F690886006A0887000C308100CD
:1039CE00690886006A0887008117EE2CC801080076
:1039DE00203020006E020318F52CF62CF72C292D22
:1039EE003D008E1CFB2CFC2CFD2C292D21003B08B0
:1039FE003C040319032D042D0C2D3B0886003C08B6
:103A0E008700811B0B2D0C2D292DA0308C312324EA
:103A1E009C31F001F00AA030FA007A08F10007306C
:103A2E00FB007B08F2000130923109229C317108B3
:103A3E002100BC007008BB00933110239C319F31D4
:103A4E0016279C3108003D2D01309B31EE239D3110
:103A5E00652D02309B31EE239D31652D9B31C323A5
:103A6E009D31652D95317D259D31652D20005108A7
:103A7E00003A0319462D7F3A0319602D652D500823
:103A8E00013A0319352D033A0319652D013A03192D
:103A9E00392D063A0319652D773A0319652D013A2A
:103AAE000319652D073A0319302D013A03192B2DF1
:103ABE00652D5008FF3A0319652D652D0800F50098
:103ACE002030F1007108F6007008F1000130F13578
:103ADE00890B6E2D7508F2000130F235FF3E031D85
:103AEE00742D72357107F3000130F335FF3E031D5F
:103AFE007C2D7335F4007408F6077608860087016E
:103B0E0081137008031D8C2D8D2D962D7535B73EA6
:103B1E00860087017608C03F0030C13F9E2D753567
:103B2E00653E860087017608C03F0030C13F7608AB
:103B3E008600870101137608043E8600870101176F
:103B4E0008002100CD012000EB012100C401C301BA
:103B5E00C8012000EC017F30DF0065088600660892
:103B6E0087005F08810504306506E50000306606B3
:103B7E00E6007F30DF0065088600660887005F0874
:103B8E00810504306506E50000306606E6007F30EC
:103B9E00DF00690886006A0887005F08810521003A
:103BAE00B001B101B201A901AA01AB0191311021FD
:103BBE009D3103302000D0000030D1000030D20003
:103BCE000030D3000030D400D5009D312A259D3120
:103BDE00933197239D3108002D302000E0006008BE
:103BEE002100C70020006F08FD39031DFF2D002E98
:103BFE003C2E6F363F39E0000130E035FF3E031DAD
:103C0E00042E6035203EE1006108ED006D08E900EC
:103C1E00FF39031D0030EA0004306906E900003068
:103C2E006A06EA006D0886008701010C890C0F39BF
:103C3E000D3A031D232E242E382E6D08023E8600CB
:103C4E008701403FF000413FF1000830F2000030A4
:103C5E00F30040308F31D2279D319D31A8259D3103
:103C6E00482E9C31B5249D31482EFD306F05E00065
:103C7E0004306006031D442E452E482E90319620AA
:103C8E009D3108002100C401C301023020006C06E2
:103C9E00031D522E532E782E6908013EF30000307C
:103CAE006A3DF400730886007408870008308100AE
:103CBE004830F3000030F400690886006A08870077
:103CCE0042317308C03F7408C13F690886006A0814
:103CDE00870048308100690886006A0887008117CE
:103CEE00A92E2100320820004702031D822E21003A
:103CFE003108200046020318852E862E8D2E470889
:103D0E002100B200200046082100B1009F31892712
:103D1E009E314830F3000030F40020006508860024
:103D2E006608870042317308C03F7408C13F6508BA
:103D3E0086006608870048308100650886006608A0
:103D4E008700811708002000C801C901F32E210049
:103D5E00B0174B03031DB42EB52E072F2000C81429
:103D6E00072F2100B017072F2100B017200044089D
:103D7E000F39003A0319C42EC52E072FC41BC82EA7
:103D8E00C92ED42E44080F390907B73E8600870185
:103D9E00403FF200413FF300DE2E44080F39090781
:103DAE00653E86008701403FF200413FF3007208F6
:103DBE00860073088700811FE52EE62E072F7208F6
:103DCE00860073088700011DED2EEE2E072F0130A1
:103DDE00F0007008C800072F40081F39F000F101ED
:103DEE007108003A0319FC2E072F7008003A0319C8
:103DFE00AE2E013A0319B82E033A0319BB2E072F24
:103E0E002100B01F0B2F0C2F152F4830AE000030A5
:103E1E00AF0030140230F0007008B100080020002E
:103E2E000C0E01399B31BA239F31003A0319202F12
:103E3E00212F882F20000D0E890C890C01399B3102
:103E4E00BA239F31003A03192D2F2E2F882F0B11D5
:103E5E00053020009500F101F201702F0B1D382F57
:103E6E00392F702F0130F1070030F23D0030720211
:103E7E00FA3003197102031C452F462F6C2F0310C5
:103E8E002100411D031403184D2F502F2100411501
:103E9E00522F21004111F101F20120000C0E0139C7
:103EAE009B31BA239F31003A03195E2F5F2F6C2F7F
:103EBE0020000D0E890C890C01399B31BA239F31DC
:103ECE00003A031D6B2F6C2F542F0B110530200061
:103EDE00950020000C0E01399B31BA239F31003A18
:103EEE0003197A2F7B2F882F20000D0E890C890C39
:103EFE0001399B31BA239F31003A031D872F882F3A
:103F0E00352F08000830F0007008F2000030210054
:103F1E0032020830031931020318962F972FAC2F57
:103F2E003108F0007008F2004D08031D9F2FA02FDE
:103F3E00A32FCD01CD0AAC2F4D03031DA72FA82F04
:103F4E00AC2F0230F0007008CD007208F000F101C5
:103F5E007008B1027108B23B20006508013EF00006
:103F6E000030663DF1007008860071088700720807
:103F7E0081004830F00070082100CC003018C82FA6
:103F8E00C92FFA2FDF2F2E0884002F088500000876
:103F9E00F0004C0886008701700881000130AE07E2
:103FAE000030AF3D0130F0007008CC070130F20256
:103FBE007208031DE32FE42FCA2FFF2F2E08840053
:103FCE002F0885000008F0004C0886008701700855
:103FDE0081000130AE070030AF3D0130F0007008B7
:103FEE00CC070130F2027208031DFE2FFF2FE52FC2
:023FFE000800B9
:020000040001F9
:08000000FF3FFF3FFF3FFF3F00
:04000E00A40FCF1F4D
:00000001FF
