:041808008C310C2CE7
:101810007E148C317E10090020008C310F2C633037
:101820008400003085000D308F31F8278C31A830CE
:1018300084000030850029308F31F8278C317E10EC
:1018400020009D313F2DF5007508073E8600870179
:101850008101750A860087013F30810520000C0E4A
:1018600001399C310A248C31F100750A8600870108
:1018700001087106FE397106810020000C0E890CEA
:1018800001399C310A248C31F100750A86008701E8
:10189000F10D01087106FD3971068100750A860097
:1018A0008701811220000E0E890C890C01399C31B0
:1018B0000A248C31F10020000C0E890C01399C3176
:1018C0000A248C31F20020000C0E01399C310A24CC
:1018D0008C3172057105F300750886008701F30EDF
:1018E000F30DF30D01087306BF3973068100200064
:1018F0000E0E890C890C01399C310A248C31F100BF
:1019000020000C0E890C01399C310A248C31F20024
:1019100020000C0E01399C310A248C3172057105AE
:10192000F300750886008701F30CF30C01087306B9
:101930007F397306810020000E0CF100F10C710C50
:1019400001399C310A248C31F20020000C0E890CE4
:1019500001399C310A248C31F30020000C0E01392E
:101960009C310A248C3173057205F400750A8600D7
:101970008701F40E01087406EF3974068100210016
:101980003D19C32CC42C032D20000E0CF100F10CCA
:10199000710C01399C310A248C31F20075088600E3
:1019A0008701F20D01087206FD3972068100750883
:1019B00086008701011020000E0E890C890C013968
:1019C0009C310A248C31F100750886008701F10DE5
:1019D000F10D01087106FB3971068100750886005A
:1019E000870181117508860087010112750886003C
:1019F00087018112750A860087010111750A860028
:101A000087018111452D3D1D062D072D452D75089A
:101A100086008701811020000E0CF100F10C710C82
:101A200001399C310A248C31F20075088600870147
:101A300001087206FE39720681007508860087016A
:101A4000011120000E0E890C890C01399C310A24E9
:101A50008C31F100750886008701F10DF10DF10D53
:101A600001087106F7397106810075088600870143
:101A700001127508860087018112750A86008701A8
:101A80000111750A86008701811120000E0D0E0DCF
:101A900001399C310A248C31003A0319502D512D03
:101AA000572D7508033E860087018101712D2000A6
:101AB0000D0E890C890C01399C310A248C31003AB5
:101AC0000319632D642D6B2D7508033E8600870175
:101AD000FF308100712D7508033E8600870180303C
:101AE000810020000D0E890C01399C310A248C31B3
:101AF000003A03197C2D7D2D832D7508043E860048
:101B0000870181019C2D20000D0D0D0D01399C31A7
:101B10000A248C31003A03198E2D8F2D962D7508CD
:101B2000043E86008701FF3081009C2D7508043E2D
:101B300086008701803081007508023E860087019B
:101B4000083081007508053E8600870180308100DD
:101B50007508063E8600870180308100B72E750823
:101B6000033E860087010108031DB72DB82DCB2D3C
:101B70007508043E8600870180300106031DC12DD3
:101B8000C22DCB2D7508023E860087010108F03971
:101B900006388100892E7508033E860087010108FA
:101BA000031DD32DD42DE62D7508043E8600870134
:101BB0000108031DDC2DDD2DE62D7508023E860093
:101BC00087010108F03907388100892E7508033E26
:101BD0008600870180300106031DEF2DF02D002EB9
:101BE0007508043E860087010108031DF82DF92DB4
:101BF000002E7508023E86008701F0308105892E8F
:101C00007508033E86008701010A031D082E092E70
:101C10001B2E7508043E860087010108031D112E46
:101C2000122E1B2E7508023E860087010108F0392E
:101C300001388100892E7508033E86008701010A5C
:101C4000031D232E242E372E7508043E860087019F
:101C500080300106031D2D2E2E2E372E7508023ED4
:101C6000860087010108F03902388100892E750845
:101C7000033E86008701010A031D3F2E402E522E8F
:101C80007508043E86008701010A031D482E492E6F
:101C9000522E7508023E860087010108F03903388C
:101CA0008100892E7508033E860087018030010679
:101CB000031D5B2E5C2E6E2E7508043E8600870188
:101CC000010A031D642E652E6E2E7508023E8600E5
:101CD00087010108F03904388100892E7508033E18
:101CE000860087010108031D762E772E892E750840
:101CF000043E86008701010A031D7F2E802E892E57
:101D00007508023E860087010108F0390538810018
:101D1000892E7508033E8600870180308100750892
:101D2000043E8600870180308100CC2E7508053E78
:101D3000860087017508033E840085010008810044
:101D40007508063E860087017508043E84008501FB
:101D5000000881007508033E8600870180308100FD
:101D60007508043E8600870180308100CC2E21005A
:101D70003D080339F100F2017208003A0319C12E3F
:101D8000CC2E7108003A0319AF2D013A0319CC2E5D
:101D9000033A0319962ECC2E080020006F08031D6D
:101DA000D22ED32EE52E3D008E01920116309100E9
:101DB0009F3097007B309200DE2E8E158E1DE12E17
:101DC000E22EDD2E2000EF01EF0A6F03031DE92E46
:101DD000EA2EF62E3D008E1AEE2EEF2EF62E9001F4
:101DE00092011214121602302000EF003D00101D67
:101DF000FA2EFB2E082F121DFE2EFF2E082FFB3071
:101E00002000E10061083D0090059C3172248E3174
:101E10003D008E1C0C2F0D2F102F20001211F72FBC
:101E2000101C132F142F232F121C172F182F232FA2
:101E3000953176258E3104302000EF00FE30E10030
:101E400061083D009005101E262F272F2E2F121EF1
:101E50002A2F2B2F2E2F9C313A248E313D00101F1C
:101E6000322F332F602F121F362F372F472F73300B
:101E70002000D0000030D1000030D2000030D3006C
:101E80000130D4000030D5009D31B0258E31BF30F7
:101E90002000E10061083D0090059C3120248E3136
:101EA000210044080319552F562F582F0130C40222
:101EB0004408031D5C2F5D2F602F9F3122278E3138
:101EC0003D00901E642F652F6C2F921E682F692F86
:101ED0006C2F9C31DF248E313D00901C702F712FB0
:101EE000872F921C742F752F872FFF302000D00072
:101EF0007F30D1000030D2000030D3000130D40058
:101F00000030D5009D31B0258E313D009301043065
:101F100020006F0203188D2F8E2F902F1211F72F94
:101F20003D00921D942F952FF52F2000E2013D00DA
:101F3000901D9B2F9C2FF52F0F082100CE004E0CDB
:101F40002000E100E10C610C0F392100C600F730E0
:101F50002000E10061083D00900521004E19B12FDD
:101F6000B22FC22F4608B93E860087010108013909
:101F70002000E1000130E10601086106FE3961063A
:101F80008100D12F4608BB3E860087010108013938
:101F90002000E1000130E10601086106FE3961061A
:101FA000810021004608031DD62FD72FDB2F9E313D
:101FB00075268E31EA2F72302000D0000030D1001B
:101FC000CE30D2000030D3000030D400D5009D3197
:101FD000B0258E3101302000E1006108E2070430B5
:101FE0006202031CF42FF52F972F20001211080016
:0C1FF000640080010131890BF92F0034DE
:102008002000C801C9014828E51721004803031D1D
:102018000E280F285C282000C8145C28E5175C28C7
:10202800E51744080F39003A03191B281C285C28B7
:10203800C41B1F2820282B2844080F390907B33E42
:1020480086008701403FF200413FF30035284408ED
:102058000F390907683E86008701403FF200413F7B
:10206800F3007208860073088700811F3C283D280A
:102078005C287208860073088700011D44284528DB
:102088005C280130C8005C2840081F39F000F101C5
:102098007108003A031951285C287008003A03199E
:1020A8000828013A03191228033A031914285C284E
:1020B8002000E51F6028612868284830E3000030C8
:1020C800E40065140230E600080020000C0E013917
:1020D8009C310A249031003A031973287428DB28AC
:1020E80020000D0E890C890C01399C310A2490318D
:1020F800003A031980288128DB280B1105302000BD
:102108009500F101F201C3280B1D8B288C28C328E8
:102118000130F1070030F23D00307202FA30031945
:102128007102031C98289928BF28031021003D1D1F
:1021380003140318A028A32821003D15A528210071
:102148003D11F101F20120000C0E01399C310A24E5
:102158009031003A0319B128B228BF2820000D0E8B
:10216800890C890C01399C310A249031003A031DED
:10217800BE28BF28A7280B11053020009500200095
:102188000C0E01399C310A249031003A0319CD28EC
:10219800CE28DB2820000D0E890C890C01399C31D2
:1021A8000A249031003A031DDA28DB288828080021
:1021B8000830F20000302000670208300319660278
:1021C8000318E728E828FA286608F20021004B08D7
:1021D800031DEF28F028F328CB01CB0AFA284B037C
:1021E800031DF728F828FA280230CB007208F000FF
:1021F800F10170082000E6027108E73B6808013E1B
:10220800F0000030693DF100700886007108870011
:102218007208810048302100C9002000651815297E
:10222800162949292D2921004908860087012000FF
:102238006308840064088500000881000130E30712
:102248000030E43D0130F00070082100C90701307A
:10225800F2027208031D3129322917294E2921005B
:102268004908860087012000630884006408850007
:10227800000881000130E3070030E43D0130F00040
:1022880070082100C9070130F2027208031D4D29A8
:102298004E2933290800200068088600690887004D
:1022A8000030011B0130F50004306806E8000030FA
:1022B8006906E90008306F06031D6329642974293B
:1022C80042087F393D009600160803196C296D29CC
:1022D800712910302000EF00742904302000EF002D
:1022E80021004A03031D79297A29BE294830F300C1
:1022F8000030F40020006808860069088700423131
:102308007308C03F7408C13F9031DC20913102301E
:1023180021004B06031D912992299F292000680856
:10232800860069088700043081006808860069080B
:1023380087008117C4297508031DA329A429B12979
:10234800200068088600690887004830810068080E
:102358008600690887008117C4292000680886005C
:1023680069088700083081006808860069088700C6
:102378008117C429AA1FC129C229C329AA13CA01BE
:1023880008002000E5170E30D7009930D600D80194
:10239800560886005708870081010130D6070030AB
:1023A800D73D0130FD007D08D80758080319DD29FD
:1023B800DE29CC290030F000F1002030F200003096
:1023C800F300203094314E2491313D000E17200047
:1023D800D9015908BB3E8600870181015908B93ED9
:1023E8008600870181010130FD007D08D907023090
:1023F8005902031C002A012AED290030F000F100DF
:102408000130F2000030F300CF3094314E24913186
:102418003D000E1328302000E8000030E90020308D
:10242800EE006E08EC00FF39031D0030ED00420895
:102438002100D0005008031D222A232A272A103001
:102448002000EF003A2A01302000D0000030D100EF
:10245800D030D2000030D3000130D4000030D50095
:102468009D31B025913120302000EF0008008030E8
:1024780020004006031D412A422AB52AC030E50043
:10248800A22AB630E3009830E4001230E6000030AB
:10249800E700B52A4208031D522A532A7E2A420819
:1024A800F000F101F035F10DD230700784001830DA
:1024B800713D80388500003FE300013FE400640877
:1024C800F1006308F00002307007840071080318F7
:1024D800710A85000008E6006408F1006308F0004E
:1024E80003307007840071080318710A850000081A
:1024F800E700B52AE501B52A033042020318852A08
:10250800862A7E2A4208F000F101F035F10DC83024
:10251800700784001830713D80388500003FE30063
:10252800013FE40063088400640885000008F000A7
:10253800F1017008E6007108E700B52A4308F000C9
:10254800F1017108003A0319AA2A7E2A7008013A93
:102558000319452A033A03194E2A013A0319802A16
:102568007E2A0800F70070080319BB2ABC2AC52A6E
:102578007735683E86008701403FF800413FF90003
:10258800CD2A7735B33E86008701403FF800413FAA
:10259800F90078087904031DD22AD32AD62AF00133
:1025A800F101372B7108F3000030F4007808860039
:1025B8007908870042317308C03F7408C13F780822
:1025C800013EF3000030793DF4007308860074087A
:1025D8008700720881004030F30078088600790887
:1025E80087007308810578088600790887008115B7
:1025F8007808860079088700811770080319052B69
:10260800062B1D2B7735683E86008701403FF30077
:10261800413FF40004307306F50000307406F600FC
:102628007735683E860087017508C03F7608C13F48
:10263800332B7735B33E86008701403FF300413F97
:10264800F40004307306F50000307406F6007735A0
:10265800B33E860087017508C03F7608C13F7908F8
:10266800F1007808F000080020000C0E01399C31B8
:102678000A249331003A0319422B432BBE2B200026
:102688000E0D0E0D01399C310A249331003A0319BD
:102698004E2B4F2BBE2B0B11053020009500F3015C
:1026A800F401A72B0B1D592B5A2BA72B0130F3072D
:1026B8000030F43D00307402FA3003197302031C31
:1026C800662B672BA32B752B3D08FC390138BD0001
:1026D8008A2B3D08FC390238BD008A2BFC30BD0529
:1026E8008A2B21003D080339F100F2017208003AF3
:1026F80003197F2B8A2B7108003A0319682B013ABA
:1027080003196D2B033A0319722B8A2BF301F40179
:1027180020000C0E01399C310A249331003A031928
:10272800962B972BA32B20000E0D0E0D01399C31F3
:102738000A249331003A031DA22BA32B8C2B0B11D7
:1027480005302000950020000C0E01399C310A2428
:102758009331003A0319B12BB22BBE2B20000E0D7A
:102768000E0D01399C310A249331003A031DBD2B0B
:10277800BE2B562B0800200040081F39013A0319C8
:10278800C62BC72BC82B4D2C44080319CC2BCD2B9B
:10279800CE2B4D2C06304106031DD32BD42B052CF4
:1027A800F22B21005003031DDA2BDB2B052C8C3078
:1027B8002000E3009830E4000930E6000030E7002C
:1027C800C030E500052C0030E3009830E4005630B6
:1027D800E6000030E700C030E500052C4308F000B3
:1027E800F1017108003A0319FA2B052C7008213AF7
:1027F8000319D52B033A0319E72B013A0319052CC2
:10280800052C2000400E890C0339013A03190D2CC0
:102818000E2C312C4D2CCD30E3000030E40001307B
:10282800E6000030E700C130E5004D2C8030E500BF
:1028380043082100CD004D2CCC30E3000030E400EB
:102848000130E6000030E7008130E5004D2C803093
:10285800E50042082100CC004D2C4108F000F101B0
:102868007108003A0319392C4D2C7008013A0319E4
:102878004D2C033A03190F2C013A0319202C0A3A5C
:1028880003194D2C033A03191A2C013A03192B2C5E
:102898004D2C0800F8007808F90072087304031D2D
:1028A800562C572C582CDD2C790886008701700887
:1028B800810072087907F4007408FF3E86008701DA
:1028C8007008810000307302033003197202031884
:1028D8006E2C6F2C702CDD2C790A8600870170080D
:1028E80081007908023E860087017008810072081D
:1028F8007907F4007408FE3E86008701700881009D
:1029080072087907F4007408FD3E86008701700894
:102918008100003073020730031972020318952CE6
:10292800962C972CDD2C7908033E860087017008C9
:10293800810072087907F4007408FC3E860087015C
:1029480070088100003073020930031972020318FD
:10295800AE2CAF2CB02CDD2C7909F4007A09F500E7
:10296800F40A0319F50A03307405F60000307505FA
:10297800F7007608F4007408F9077608F202770879
:10298800F33BFC30F205FF30F305D72C79088600BD
:102998008701700881000130F2020030F33B0130FA
:1029A800F4007408F90772087304031DDC2CDD2C8D
:1029B800CA2C08003D000E122000E51BE42CE52C73
:1029C800292D2100AA1FE92CEA2CF82C0230CA0074
:1029D8003F08031DF02CF12CF42C9E31C7269431AE
:1029E8002100C101C201752D20006C08013EF500CF
:1029F80000306D3DF60075088600760887000830BF
:102A080081004030F5000030F6006C0886006D0843
:102A1800870042317508C03F7608C13F6C088600C0
:102A28006D0887000C3081006C0886006D088700EF
:102A380081176808860069088700043081006808E3
:102A48008600690887008117752DC01F2C2D2D2D34
:102A5800442D2100CA01CA0A4008031D342D352D12
:102A6800382D9E31C72694312100C101C201430887
:102A7800031D3F2D402D752D9F3122279431752D33
:102A880002302100CA0020006C08013EF500003029
:102A98006D3DF600750886007608870008308100CD
:102AA8004030F5000030F6006C0886006D0887009D
:102AB80042317508C03F7608C13F6C0886006D0832
:102AC8008700043081006C0886006D088700811734
:102AD8002100C101C2014308031D732D742D752DFA
:102AE800402D0800210012113D009301900198012A
:102AF8000E30F2009930F100F30171088600720877
:102B0800870081010130F1070030F23D0130F0000B
:102B18007008F30773080319922D932D812D163031
:102B28003D0091009F3097007B309200F4017408BB
:102B3800F0000130F035FF3E031D9E2D7035203E1C
:102B4800860087010030C03F0030C13FC23FC33F0D
:102B58000130F0007008F40708307402031CB52D2A
:102B6800B62D9B2D3D000E1796010E120E13F73051
:102B7800F000700890052000E5012100AA01AB01D2
:102B8800AC013D009019C92DCA2DBB2D0130210083
:102B9800C2000130C100C001BF01C701F401743592
:102BA800683E860087010030C03FC13F7435B33EA0
:102BB800860087010030C03FC13F7408BB3E8600D5
:102BC800870181017408B93E8600870181010130BF
:102BD800F0007008F40702307402031CF42DF52D80
:102BE800D32D28302000E8000030E90016303D00E1
:102BF800980000302000A3004030A2000830A10057
:102C08000430A000A0172100D0010030B20000302D
:102C1800B1000030B0000030AF00BE012000EF016D
:102C2800080020006E0886008701413FF5007508FE
:102C3800F200F301730821002C02031D252E7208EF
:102C48002B020318282E292E2B2E2B08F500750889
:102C5800F200F3017208AB027308AC3BF401452E95
:102C68002808860087017408483E8400850100080A
:102C780081000130F2007208A8070130F2007208E2
:102C8800F40775087402031C4A2E4B2E342E2B08A9
:102C98002C040319502E512E8A2E20006C08013E58
:102CA800F20000306D3DF30072088600730887005B
:102CB800083081004830F2000030F3006C088600CC
:102CC8006D08870042317208C03F7308C13F6E0823
:102CD80086008701011B712E722E7E2E6C088600DD
:102CE8006D088700483081006C0886006D088700F1
:102CF8008117B92E6C0886006D088700083081009E
:102D08006C0886006D0887008117B92E20006C08B2
:102D1800013EF20000306D3DF30072088600730832
:102D28008700083081004030F2000030F3006C0862
:102D380086006D08870042317208C03F7308C13FA2
:102D48006C0886006D088700043081006C088600D6
:102D58006D08870081172100AA134308031DB52EAB
:102D6800B62EB92E9F312227963108002000420343
:102D7800031DBF2EC02ED42E40081F39003A031D54
:102D8800C62EC72ED42EE51703304106031DCD2EBF
:102D9800CE2ED22E2100C801C80AD42E2100C80187
:102DA80020004208031DD92EDA2EFF2F40081F39B4
:102DB800023A031DE02EE12EFF2F44080F39003A96
:102DC8000319E72EE82EFF2F44080F39D6000230EA
:102DD80056020318F02EF12EFF2F20306F06031D28
:102DE800F62EF72EFF2FE517C41BFB2EFC2E0E2FF9
:102DF80044080F390907B33E86008701403FDB00CE
:102E0800413FDC0044080F39B93E860087010108BC
:102E1800DA001F2F44080F390907683E860087012A
:102E2800403FDB00413FDC0044080F39BB3E8600D1
:102E380087010108DA005A18222F232F2E2FFB3082
:102E4800D600FF30D7005B085605DB005C08570545
:102E5800DC00342F04305B04DB0000305C04DC0051
:102E6800C41B372F382F432F44080F390907B33EA7
:102E7800860087015B08C03F5C08C13F4D2F4408AE
:102E88000F390907683E860087015B08C03F5C0868
:102E9800C13F03304106031D522F532F772F5B0884
:102EA80086005C088700811F5A2F5B2F6C2FC41B7C
:102EB8005E2F5F2F662F44080F39B93E86008701C1
:102EC80081146C2F44080F39BB3E8600870181149A
:102ED8005B0886005C08870001155B0886005C08B3
:102EE80087008117FF2F04305B06DB0000305C068B
:102EF800DC005B0886005C088700811F842F852F13
:102F0800A22F7F30D6005B0886005C088700560831
:102F180081055B0886005C08870001170530D00032
:102F28000030D1005C08D3005B08D2000230D40026
:102F38000030D5009D31B0259631A72F5B0886005B
:102F48005C0887000117043020005B06DB000030B6
:102F58005C06DC00DA18B12FB22FBA2F5B088600A6
:102F68005C088700811FB92FBA2FE32FC41BBD2F20
:102F7800BE2FC52F44080F39B93E8600870181103E
:102F8800CB2F44080F39BB3E8600870181103B30A8
:102F9800D6005B0886005C08870056088105053066
:102FA800D0000030D1005C08D3005B08D2000230AA
:102FB800D4000030D5009D31B0259631EB2F3B3041
:102FC800D6005B0886005C0887005608810520004B
:102FD80044080F39983ED600D7010E30D73D560821
:102FE800D8005708D900FE30D6005808860059087E
:102FF8008700560881050800053401340934053472
:10300800A134013415340034253401343534003406
:103018004534013475340134953410340534093499
:10302800193401342934103481340234053401341C
:103038002534073446343B3401347534043495342C
:1030480001346534143409343934813442346534F4
:10305800003495340134813401342634FF3400348B
:103068004634FF34003409343034093431340934F7
:1030780032340934353475340834953404348134A1
:10308800023406340034FF340934203495340134D2
:10309800813402340A342134263495340834913486
:1030A8000234C034243403345334003457340034E5
:1030B8004934003454340034433400344834003440
:1030C80020340034433400344F3400344E34003458
:1030D80054340034523400344F3400344C34003407
:1030E8004C3400344534003452340034093402344A
:1030F80022340034013401340034C0343234093409
:10310800043400340034013403340034003400340F
:103118000934213411340134003401342234563452
:1031280000340734053481340334403400340A341D
:103138001A340334533400345734003449340034D7
:1031480054340034433400344834003420340034D8
:103158005434003445340034533400345434003487
:103168002034003412340134003402340034003482
:10317800003408340D340F349234003400340134F0
:103188000134023403340134CE3498349C349834F6
:103198005634983404340334093404347A34983473
:10380A00FC302100BD053D110800F00070080319C5
:10381A000F2C112C0130122C003008002100B701A6
:10382A00B8011A30F70001309C3192249C319C3146
:10383A0005249C31080001302100AF070030B03D5B
:10384A000030B13D0030B23D4708031D2D2C2E2C0F
:10385A00392C0130F0007008BE073E08031D362CD3
:10386A00372C392CFF30BE0008003D001215EF300E
:10387A00FD007D0890058E142100C701C70ABE010C
:10388A0075302000D0000030D1000030D200003066
:10389A00D3000030D400D5009D31B0259C310800FA
:1038AA00F2005E2CFC3021009900903027009B002A
:1038BA00712C7208F000F1017108003A0319662CA4
:1038CA00712C7008003A0319572C013A0319712C0C
:1038DA00033A0319712C712C08002100C7017430B6
:1038EA002000D0000030D1000030D2000030D300D8
:1038FA000030D400D5009D31B0259C313D008E109A
:10390A0012118B2CFB30FD007D08900510198E2CAE
:10391A008F2C872C2100BE010800FC00771D962CF5
:10392A00972C9C2CF0017C089D31EC259C31F71CCE
:10393A009F2CA02CA62CF001F00A7C089D31EC25C6
:10394A009C317C08983EF800F9010E30F93D780860
:10395A00FA007908FB007A0886007B088700770856
:10396A0081000800F8007108F6007008F500780870
:10397A00F900D22C75088600760887000108F7003E
:10398A000130F5070030F63D79088600870177088F
:10399A0081000130F4007408F9070130F2020030A6
:1039AA00F33B720A031DDD2C730A031DDD2CDE2C8A
:1039BA00BF2C08003D00181CE32CE42C032D20002A
:1039CA006E088600870180300106031DED2CEE2C5F
:1039DA00012D680886006908870084300106031DE6
:1039EA00F72CF82C012D6E08860087010C30810017
:1039FA006E088600870181173D001810DF30F0003D
:103A0A00700890050800203020006F0203180E2D60
:103A1A000F2D102D3E2D3D008E1C142D152D162D0B
:103A2A003E2D21003708380403191C2D1D2D252D84
:103A3A003708860038088700811B242D252D3E2D46
:103A4A00A0308C3123249D31F001F00AA030F1001E
:103A5A000830F20001309231B6229D3171082100FE
:103A6A00B8007008B700933138239D31903169202E
:103A7A009D31080000309C3155249D3195317625C1
:103A8A009D31303021008C00F0308D00FF308E00E7
:103A9A00951324008C018D0123008C018D018E0168
:103AAA0007302100950495111512951215178B17D9
:103ABA000530200095008E31CD269D312030200022
:103ACA006F020318692D6A2D6B2D602D3D008E1C27
:103ADA006F2D702D712D602D9D3108259D31602D22
:103AEA008C310C2C023021004A06031D7D2D7E2DBF
:103AFA00822D963115269D31AF2DCA014508031D29
:103B0A00872D882DAE2D20006C08013EF60000306E
:103B1A006D3DF70076088600770887000830810037
:103B2A004030F6000030F7006C0886006D08870008
:103B3A0042317608C03F7708C13F6C0886006D089D
:103B4A0087000C3081006C0886006D088700811799
:103B5A00AF2DC5010800C32D01309C3155249D317C
:103B6A00EB2D02309C3155249D31EB2D9C311324D1
:103B7A009D31EB2D9331BF239D31EB2D2000510850
:103B8A00003A0319CC2D7F3A0319E62DEB2D500884
:103B9A00013A0319BB2D033A0319EB2D013A031914
:103BAA00BF2D063A0319EB2D773A0319EB2D013A8B
:103BBA000319EB2D073A0319B62D013A0319B12D52
:103BCA00EB2D5008FF3A0319EB2DEB2D0800F500F9
:103BDA002030F6007008F1000130F135890BF22D22
:103BEA007508F2000130F235FF3E031DF82D7235DB
:103BFA007107F3000130F335FF3E031D002E7335C4
:103C0A00F4007408F60776088600870181137008A5
:103C1A00031D102E112E1A2E7535B33E860087010C
:103C2A007608C03F0030C13F222E7535683E8600B7
:103C3A0087017608C03F0030C13F760886008701B9
:103C4A0001137608043E8600870101170800210047
:103C5A00CB01C301C001BF01C501CA017F302000E9
:103C6A00DF0068088600690887005F08810504305C
:103C7A006806E80000306906E9007F30DF0068085E
:103C8A008600690887005F08810504306806E80035
:103C9A0000306906E9007F30DF006C0886006D0895
:103CAA0087005F088105E501E601E7012100AA0115
:103CBA00AB01AC019F3190279E3103302000D00028
:103CCA000030D1000030D2000030D3000030D400E0
:103CDA00D5009D31B0259E319431DE249E310800F5
:103CEA002D302100C4004E08FD39031D7D2E7E2E85
:103CFA00B92E4E363F392000E0000130E035FF3E54
:103D0A00031D832E6035203EEE006E08EC00FF395D
:103D1A00031D0030ED0004306C06EC0000306D0627
:103D2A00ED006E0886008701010C890C0F390D3AE7
:103D3A00031DA02EA12EB52E6E08023E8600870115
:103D4A00403FF000413FF1000830F2000030F3003C
:103D5A0040309C31B7249E319E312C269E31C62E8E
:103D6A009D3177259E31C62EFD304E052000E0009C
:103D7A0004306006031DC22EC32EC62E91314F2178
:103D8A009E3108002100C001BF0102304A06031D0E
:103D9A00CF2ED02EF62E20006C08013EF300003004
:103DAA006D3DF400730886007408870008308100AE
:103DBA004830F3000030F4006C0886006D08870074
:103DCA0042317308C03F7408C13F6C0886006D0811
:103DDA008700483081006C0886006D0887008117CB
:103DEA00212F200067084702031DFD2E66084602A0
:103DFA000318002F012F052F4708E7004608E600A1
:103E0A009031DC209E314830F3000030F40020006D
:103E1A00680886006908870042317308C03F740841
:103E2A00C13F680886006908870048308100680831
:103E3A008600690887008117080021004208031DCF
:103E4A00272F282F8F2F0130C2004108031D2E2F44
:103E5A002F2F8F2F0130C10002304A06031D362F43
:103E6A00372F4A2F200068088600690887004131E9
:103E7A00810168088600690887004830810068085F
:103E8A0086006908870081178F2F4A03031D4E2F6A
:103E9A004F2F8F2FC50120006E0A86008701083038
:103EAA0081004030F0000030F1006E08023E8600CA
:103EBA0087017008C03F7108C13F6E0886008701FC
:103ECA00043081006E088600870181172100C50130
:103EDA00C50A20006C08013EF00000306D3DF1007B
:103EEA007008860071088700083081004030F000B1
:103EFA000030F1006C0886006D08870042317008B6
:103F0A00C03F7108C13F6C0886006D088700803089
:103F1A0081008F2F08002000400E890C0339003AD7
:103F2A000319982F992FD42FFF2FE5170830EF0088
:103F3A00FF2F92313B229F31FF2F9131C5219F31B3
:103F4A00FF2FD030E3000030E4006514E601E60AF2
:103F5A00E517FF2F903104209F31FF2F9631BA26A3
:103F6A009F31FF2F4408CF3EE3000030E400AA2F20
:103F7A00E5174408CF3E8600870142088100FF2FDB
:103F8A000230D0000030D1000030D2000030D3001F
:103F9A000030D400D5009D31B0259F31FF2F410854
:103FAA00DD00DE015E08003A0319DC2FFF2F5D08F1
:103FBA00003A0319AF2F013A0319B32F023A031932
:103FCA00B32F063A03199A2F033A03199E2F013A7F
:103FDA000319C52F0F3A0319A62F013A0319A22F65
:103FEA00033A0319B72F013A0319BD2F073A0319E8
:063FFA00FF2FFF2F08005D
:020000040001F9
:08000000FF3FFF3FFF3FFF3F00
:04000E00A40FCF1F4D
:00000001FF
