:041808008C310C2CE7
:101810007E148C317E10090020008C310F2C483052
:1018200084000030850015309C31A2248C3160305A
:1018300084000130850010309C31A2248C31E030CE
:101840008400013085000F309C31A2248C317E1041
:1018500020009E311C2EF50020000C0E890C013951
:101860009C31A8248C31F1007508023E8600870166
:10187000F10E01087106EF397106810020000C0E8F
:1018800001399C31A8248C31F1007508023E860094
:101890008701F10EF10D01087106DF397106810033
:1018A0007508033E8600870101107508033E860017
:1018B000870181107508023E860087018113750833
:1018C000023E8600870101137508033E86008701EA
:1018D00001117508043E8600870181017508053EE7
:1018E00086008701810120005319772C782CAA2CBF
:1018F0000E0E890C890C01399C31A8248C31F10021
:101900007508033E86008701F10EF10D010871068E
:10191000DF397106810020000E0CF100F10C710C12
:1019200001399C31A8248C31F2007508033E8600F1
:101930008701F20E01087206EF3972068100750800
:10194000033E8600870181137508033E86008701E8
:101950000113E12C531DAD2CAE2CE12C7508033E78
:101960008600870181127508033E860087010112F7
:101970000E0E890C890C01399C31A8248C31F100A0
:101980007508033E86008701F10CF10C0108710611
:101990007F397106810020000E0CF100F10C710CF2
:1019A00001399C31A8248C31F2007508033E860071
:1019B0008701F20EF20DF20D01087206BF397206B0
:1019C00081007508023E8600870101117508023EFC
:1019D0008600870181117508023E8600870101108B
:1019E0007508023E8600870181107508073E860053
:1019F000870181017508063E86008701810175080F
:101A0000083E8600870181017508093E860087012E
:101A1000810175080B3E86008701810175080A3E29
:101A200086008701810175080C3E860087018101CF
:101A300075080D3E860087018101172E0E0D0E0DD3
:101A400001399C31A8248C31F1007508023E8600D2
:101A50008701F10DF10D01087106FB397106810056
:101A600020000D0E890C890C01399C31A8248C3181
:101A7000F1007508023E86008701F10DF10DF10DB0
:101A800001087106F7397106810020000D0E890CDE
:101A900001399C31A8248C31F1007508023E860082
:101AA000870101087106FE397106810020000D0DC5
:101AB0000D0D01399C31A8248C31F1007508023ECE
:101AC00086008701F10D01087106FD39710681005C
:101AD0002C2E0E0D0E0D01399C31A8248C31003AAC
:101AE0000319732D742D7B2D7508073E8600870121
:101AF00080308100942D20000D0E890C890C013955
:101B00009C31A8248C31003A0319872D882D942DFF
:101B10007508073E860087017F3081007508063E04
:101B200086008701FF30810020000D0D0D0D013969
:101B30009C31A8248C31003A03199F2DA02DA72D8C
:101B40007508093E86008701803081002C2E200018
:101B50000D0E890C01399C31A8248C31003A0319EF
:101B6000B22DB32D2C2E7508093E860087017F30DB
:101B700081007508083E86008701FF3081002C2E09
:101B80000E0D0E0D01399C31A8248C31003A031939
:101B9000CA2DCB2DD22D75080B3E860087018030D3
:101BA0008100EB2D20000D0E890C890C01399C3130
:101BB000A8248C31003A0319DE2DDF2DEB2D75089A
:101BC0000B3E860087017F30810075080A3E860043
:101BD0008701FF30810020000D0D0D0D01399C3172
:101BE000A8248C31003A0319F62DF72DFE2D750827
:101BF0000D3E86008701803081002C2E20000D0EC6
:101C0000890C01399C31A8248C31003A0319092E22
:101C10000A2E2C2E75080D3E860087017F3081002C
:101C200075080C3E86008701FF3081002C2E2000B5
:101C300053080339F100F2017208003A0319212E0A
:101C40002C2E7108003A03191E2D013A0319692D33
:101C5000033A0319C02D2C2EF301F4017308750704
:101C6000F10071080E3E8600870181010130F30703
:101C70000030F43D7408803AF10080307102031D99
:101C8000432E06307302031C462E472E2E2E0800CC
:101C900020004203031D4D2E4E2E622E40081F3998
:101CA000003A031D542E552E622ECA1703304106EA
:101CB000031D5B2E5C2E602E2200EE01EE0A622ECA
:101CC0002200EE0120004208031D672E682E952F8A
:101CD00040081F39023A031D6E2E6F2E952F4408BF
:101CE0000F39003A0319752E762E952F44080F39B7
:101CF000E3000230630203187E2E7F2E952F2030E2
:101D00005906031D842E852E952FCA17C41B892EB4
:101D10008A2E9E2E44080F390907EB3E86000130BB
:101D20008700403FE800413FE90044080F39623E28
:101D30008600013087000108E700B02E44080F3903
:101D400009074D3E86008701403FE800413FE9001A
:101D500044080F39643E8600013087000108E7001F
:101D60006718B32EB42EBF2EFB30E300FF30E40023
:101D700068086305E80069086405E900C52E0430B9
:101D80006804E80000306904E900C41BC82EC92EAD
:101D9000D52E44080F390907EB3E86000130870035
:101DA0006808C03F6908C13FDF2E44080F390907A2
:101DB0004D3E860087016808C03F6908C13F033077
:101DC0004106031DE42EE52E0B2F680886006908E6
:101DD0008700811FEC2EED2E002FC41BF02EF12E5C
:101DE000F92E44080F39623E8600013087008114C5
:101DF000002F44080F39643E8600013087008114AB
:101E00006808860069088700011568088600690867
:101E100087008117952F04306806E80000306906B6
:101E2000E9006808860069088700811F182F192FAC
:101E3000362F7F30E3006808860069088700630852
:101E40008105680886006908870001170530DD00F4
:101E50000030DE006908E0006808DF000230E100C1
:101E60000030E2009E318E268E313B2F68088600BE
:101E7000690887000117043020006806E800003078
:101E80006906E900E718452F462F4E2F680886009F
:101E900069088700811F4D2F4E2F792FC41B512FAA
:101EA000522F5A2F44080F39623E860001308700B6
:101EB0008110612F44080F39643E8600013087008D
:101EC00081103B30E30068088600690887006308DA
:101ED00081050530DD000030DE006908E00068089B
:101EE000DF000230E1000030E2009E318E268E31AC
:101EF000812F3B30E300680886006908870063088B
:101F00008105200044080F39983EE300E4010E30BB
:101F1000E43D6308E5006408E600FE30E300650880
:101F20008600660887006308810508002100B0016B
:101F3000B101DC2FCA1722006E03031DA02FA12FB1
:101F4000F12F2100B014F12FCA17F12FCA1744083E
:101F50000F39003A0319AD2FAE2FF12FC41BB12F4B
:101F6000B22FBE2F44080F390907EB3E860001301F
:101F70008700403FF200413FF300C82F44080F396B
:101F800009074D3E86008701403FF200413FF300C4
:101F90007208860073088700811FCF2FD02FF12F82
:101FA0007208860073088700011DD72FD82FF12FE4
:101FB00001302100B000F12F200040081F39F0004F
:101FC000F1017108003A0319E62FF12F7008003A69
:101FD00003199A2F013A0319A42F033A0319A62FC4
:101FE000F12F2000CA1FF52FF62FFD2FB030C800AB
:0C1FF0000030C9004A140230CB00080089
:10200800FE3020004005F000C0307006031D0D288A
:102018000E2834284103031D1228132834284408A5
:102028004504031D1828192834281430F1000030FD
:10203800F20000304702143003194602031825281D
:1020480026282A284708F2004608F1008B30C800E5
:102058009830C9007208CC007108CB00C030CA00A3
:10206800080022006A08031D3A283B28A3280130EB
:10207800EA006908031D41284228A3280130E90025
:10208800023020005606031D4A284B285D284D08BB
:1020980086004E088700413181014D0886004E08B0
:1020A8008700483081004D0886004E088700811758
:1020B800A3285603031D61286228A3282200EC01E7
:1020C8002000580A86008701403081004030F00027
:1020D8000030F1005808023E860087017008C03FB2
:1020E8007108C13F580886008701043081005808EC
:1020F8008600870181172200EC01EC0A20005108B4
:10210800013EF0000030523DF10070088600710871
:102118008700403081004030F0000030F100510865
:1021280086005208870042317008C03F7108C13FDD
:10213800510886005208870080308100A3280800D3
:102148002000400E890C0339003A0319AC28AD2849
:10215800E8281329CA170830D90013299231E02238
:102168009031132992316B22903113295C30C800C9
:102178000030C9004A14CB01CB0ACA1713298F3182
:102188009627903113298E31482690311329440817
:102198005B3EC8000030C900BE28CA1744085B3E31
:1021A800860087014208810013290230DD000030D3
:1021B800DE000030DF000030E0000030E100E20027
:1021C8009E318E26903113294108EA00EB016B08F5
:1021D800003A0319F02813296A08003A0319C3289A
:1021E800013A0319C728023A0319C728063A0319FE
:1021F800AE28033A0319B228013A0319D9280F3A2D
:102208000319BA28013A0319B628033A0319CB2847
:10221800013A0319D128073A031913291329080089
:102228004030F200003020004C02403003194B02CD
:1022380003181F29202931294B08F2005708031DCC
:10224800262927292A29D701D70A31295703031D07
:102258002E292F2931290230D7007208F000F10108
:102268007008CB027108CC3B4D08013EF0000030ED
:102278004E3DF100700886007108870072088100E1
:10228800B0302200EF0020004A184B294C297F2942
:10229800632922006F08860087012000480884000F
:1022A80049088500000881000130C8070030C93D91
:1022B8000130F00070082200EF070130F2027208C6
:1022C800031D672968294D29842922006F08860083
:1022D800870120004808840049088500000881001B
:1022E8000130C8070030C93D0130F00070082200F5
:1022F800EF070130F2027208031D83298429692936
:10230800080020000C0E01399C31A8249131003AB4
:1023180003198F299029F72920000D0E890C890CA3
:1023280001399C31A8249131003A03199C299D292F
:10233800F7290B11053020009500F101F201DF2982
:102348000B1DA729A829DF290130F1070030F23D2C
:1023580000307202FA3003197102031CB429B5293E
:10236800DB2903102000531D03140318BC29BF29BF
:1023780020005315C12920005311F101F20120005A
:102388000C0E01399C31A8249131003A0319CD294A
:10239800CE29DB2920000D0E890C890C01399C31CE
:1023A800A8249131003A031DDA29DB29C3290B112E
:1023B80005302000950020000C0E01399C31A8241E
:1023C8009131003A0319E929EA29F72920000D0E6D
:1023D800890C890C01399C31A8249131003A031DDC
:1023E800F629F729A429080020004D0886004E0880
:1023F80087000030011B0130F50004304D06CD0088
:1024080000304E06CE0008305906031D0C2A0D2A4E
:102418001D2A42087F393D00960016080319152A1F
:10242800162A1A2A10302000D9001D2A043020004C
:10243800D9005603031D212A222A622AB030F3004C
:102448000030F4004D0886004E08870042317308BA
:10245800C03F7408C13F91311421913102302000EE
:102468005706031D382A392A452A4D0886004E0882
:102478008700043081004D0886004E0887008117C8
:102488006A2A7508031D492A4A2A562A4D088600D1
:102498004E088700483081004D0886004E088700A6
:1024A80081176A2A4D0886004E0887000830810087
:1024B8004D0886004E08870081176A2A2300E21F0C
:1024C800662A672A682AE2132000D601080020003D
:1024D800CA170E30E4009930E300E501630886006E
:1024E8006408870081010130E3070030E43D0130D2
:1024F800FD007D08E50765080319832A842A722AE6
:102508000030F000F1002030F2000030F3002030FD
:102518009431672492313D000E172000E6016608C9
:10252800643E86000130870081016608623E8600AD
:102538000130870081010130FD007D08E607023087
:102548006602031CA82AA92A932A0030F000F10089
:102558000130F2000030F3005B309431672492318F
:102568003D000E1328302000CD000030CE00203072
:10257800D8005808D100FF39031D0030D2004208A6
:10258800DC005C08031DC92ACA2ACD2A1030D900EC
:10259800DF2A0130DD000030DE005C30DF00003073
:1025A800E0000130E1000030E2009E318E269231D9
:1025B80020302000D9000800803020004006031D8C
:1025C800E62AE72A5A2BC030CA00472B9F30C8009A
:1025D8009830C9001230CB000030CC005A2B42088A
:1025E800031DF72AF82A232B4208F000F101F035E1
:1025F800F10DE730700784001830713D8038850090
:10260800003FC800013FC9004908F1004808F00030
:1026180002307007840071080318710A85000008E9
:10262800CB004908F1004808F00003307007840027
:1026380071080318710A85000008CC005A2BCA01DA
:102648005A2B0330420203182A2B2B2B232B420828
:10265800F000F101F035F10DDB307007840018301F
:10266800713D80388500003FC800013FC900480817
:102678008400490885000008F000F1017008CB00CB
:102688007108CC005A2B4308F000F1017108003A98
:1026980003194F2B232B7008013A0319EA2A033A2E
:1026A8000319F32A013A0319252B232B0800F700F5
:1026B80070080319602B612B6A2B77354D3E860015
:1026C8008701403FF800413FF900732B7735EB3E17
:1026D800860001308700403FF800413FF900780844
:1026E8007904031D782B792B7C2BF001F101DF2B6A
:1026F8007108F3000030F400780886007908870034
:1027080042317308C03F7408C13F7808013EF300A6
:102718000030793DF4007308860074088700720859
:1027280081004030F3007808860079088700730834
:102738008105780886007908870081157808860061
:1027480079088700811770080319AB2BAC2BC32BB2
:1027580077354D3E86008701403FF300413FF40046
:1027680004307306F50000307406F60077354D3EE8
:10277800860087017508C03F7608C13FDB2B773597
:10278800EB3E860001308700403FF300413FF400F4
:1027980004307306F50000307406F6007735EB3E1A
:1027A8008600013087007508C03F7608C13F790868
:1027B800F1007808F000080020000C0E01399C3167
:1027C800A8249331003A0319EA2BEB2B662C20003E
:1027D8000E0D0E0D01399C31A8249331003A0319CE
:1027E800F62BF72B662C0B11053020009500F30112
:1027F800F4014F2C0B1D012C022C4F2C0130F30738
:102808000030F43D00307402FA3003197302031CDF
:102818000E2C0F2C4B2C1D2C5308FC390138D300DF
:10282800322C5308FC390238D300322CFC30D30543
:10283800322C200053080339F100F2017208003AE3
:102848000319272C322C7108003A0319102C013A6D
:102858000319152C033A03191A2C322CF301F4012D
:1028680020000C0E01399C31A8249331003A031939
:102878003E2C3F2C4B2C20000E0D0E0D01399C31A7
:10288800A8249331003A031D4A2C4B2C342C0B11ED
:1028980005302000950020000C0E01399C31A82439
:1028A8009331003A0319592C5A2C662C20000E0D2E
:1028B8000E0D01399C31A8249331003A031D652C73
:1028C800662CFE2B0800F8007808F90072087304DB
:1028D800031D6F2C702C712CF62C7908860087014B
:1028E8007008810072087907F4007408FF3E8600BA
:1028F80087017008810000307302033003197202E7
:102908000318872C882C892CF62C790A86008701D5
:10291800700881007908023E8600870170088100EE
:1029280072087907F4007408FE3E86008701700873
:10293800810072087907F4007408FD3E860087015B
:1029480070088100003073020730031972020318FF
:10295800AE2CAF2CB02CF62C7908033E86008701EC
:102968007008810072087907F4007408FC3E86003C
:102978008701700881000030730209300319720260
:102988000318C72CC82CC92CF62C7909F4007A092D
:10299800F500F40A0319F50A03307405F60000304F
:1029A8007505F7007608F4007408F9077608F2024E
:1029B8007708F33BFC30F205FF30F305F02C79087B
:1029C80086008701700881000130F2020030F33B75
:1029D8000130F4007408F90772087304031DF52C1C
:1029E800F62CE32C08003D000E122000CA1BFD2C1B
:1029F800FE2C442D2300E21F022D032D132D02303F
:102A08002000D60022006708031D0B2D0C2D0F2D6A
:102A18009F31A62794312200E901EA01902D200078
:102A28005108013EF5000030523DF6007508860059
:102A380076088700403081004030F5000030F6000D
:102A4800510886005208870042317508C03F760851
:102A5800C13F51088600520887000C308100510898
:102A680086005208870081174D0886004E088700A7
:102A7800043081004D0886004E0887008117902D8C
:102A8800C01F472D482D602DD601D60A22006808A0
:102A9800031D4F2D502D532D9F31A6279431220011
:102AA800E901EA0120005408031D5B2D5C2D902DDF
:102AB800903135209431902D0230D6005108013ED6
:102AC800F5000030523DF60075088600760887004C
:102AD800403081004030F5000030F6005108860093
:102AE8005208870042317508C03F7608C13F510837
:102AF8008600520887000430810051088600520879
:102B0800870081172200E901EA0120005408031D0B
:102B18008E2D8F2D902D5C2D0800210012113D0067
:102B28009301900198010E30F2009930F100F30101
:102B3800710886007208870081010130F1070030B2
:102B4800F23D0130F0007008F30773080319AD2D4A
:102B5800AE2D9C2D16303D0091009F3097007B30A4
:102B68009200F4017408F0000130F035FF3E031DB7
:102B7800B92D7035203E860087010030C03F0030F7
:102B8800C13FC23FC33F0130F0007008F40708306E
:102B98007402031CD02DD12DB62D3D000E179601C1
:102BA8000E120E13F730F000700890052000CA01CD
:102BB8002300E201E301E4013D009019E42DE52D35
:102BC800D62D01302200EA000130E900E801E701D2
:102BD800ED01F40174354D3E860087010030C03F99
:102BE800C13F7435EB3E8600013087000030C03F9E
:102BF800C13F7408643E8600013087008101740873
:102C0800623E86000130870081010130F0007008C3
:102C1800F40702307402031C122E132EEE2D2830F6
:102C28002000CD000030CE0016303D009800003066
:102C38002000A3004030A2004030A1000430A000D2
:102C4800A017DC0100302300EA000030E900003062
:102C5800E8000030E7002200E6012000D901080062
:102C68002000580886008701413FF5007508F200EA
:102C7800F301730823006402031D442E72086302E3
:102C88000318472E482E4A2E6308F5007508F200EF
:102C9800F3017208E3027308E43BF401642E600850
:102CA800860087017408B03E840085010008810011
:102CB8000130F2007208E0070130F2007208F407F0
:102CC80075087402031C692E6A2E532E6308640467
:102CD80003196F2E702EA92E20005108013EF20014
:102CE8000030523DF30072088600730887004030B8
:102CF8008100B030F2000030F3005108860052081D
:102D0800870042317208C03F7308C13F58088600E7
:102D18008701011B902E912E9D2E51088600520886
:102D280087004830810051088600520887008117C3
:102D3800D92E5108860052088700083081005108B2
:102D48008600520887008117D92E20005108013EBD
:102D5800F2000030523DF3007208860073088700C5
:102D6800403081004030F2000030F3005108860006
:102D78005208870042317208C03F7308C13F5108AA
:102D880086005208870004308100510886005208E6
:102D9800870081172300E21320005408031DD52E55
:102DA800D62ED92E903135209631080020005908AA
:102DB800031DDF2EE02EF22E3D008E01920116300B
:102DC80091009F3097007B309200EB2E8E158E1D60
:102DD800EE2EEF2EEA2E2000D901D90A5903031D41
:102DE800F62EF72E032F3D008E1AFB2EFC2E032FF6
:102DF800900192011214121602302000D9003D00F1
:102E0800101D072F082F152F121D0B2F0C2F152FF4
:102E1800FB302000EE006E083D0090059D31042532
:102E280096313D008E1C192F1A2F1D2F20001211CC
:102E3800FF2F101C202F212F302F121C242F252F5D
:102E4800302F95319125963104302000D900FE307D
:102E5800EE006E083D009005101E332F342F3B2FD7
:102E6800121E372F382F3B2F9C31CC2496313D0032
:102E7800101F3F2F402F6D2F121F432F442F542F09
:102E880073302000DD000030DE000030DF0000304D
:102E9800E0000130E1000030E2009E318E269631DC
:102EA800BF302000EE006E083D0090059C31B12433
:102EB800963122006B080319622F632F652F0130AA
:102EC800EB026B08031D692F6A2F6D2F9031352097
:102ED80096313D00901E712F722F792F921E752FFB
:102EE800762F792F9D31BC2596313D00901C7D2F82
:102EF8007E2F942F921C812F822F942FFF30200039
:102F0800DD007F30DE000030DF000030E0000130FF
:102F1800E1000030E2009E318E2696313D0093019B
:102F280004302000590203189A2F9B2F9D2F12114D
:102F3800FF2F3D00921DA12FA22FFD2F2000EF0192
:102F48003D00901DA82FA92FFD2F0F082000DA00A3
:102F58005A0CEE00EE0C6E0C0F39D500F730EE006F
:102F68006E083D00900520005A19BB2FBC2FCC2FAE
:102F78005508623E86000130870001080139EE00DD
:102F88000130EE0601086E06FE396E068100DB2F61
:102F98005508643E86000130870001080139EE00BB
:102FA8000130EE0601086E06FE396E0681005508EE
:102FB800031DDF2FE02FE42F9F3155279631F22F85
:102FC8007230DD000030DE005A30DF000030E000F3
:102FD8000030E100E2009E318E269631013020005B
:102FE800EE006E08EF0704306F02031CFC2FFD2F64
:102FF800A42F200012110800093402348B34003445
:10300800043401340034A034FA340934043400346C
:1030180000340234FF345D34013400341134213477
:103028001034013401342534813414340334033426
:1030380003340434133402340834033403340734B7
:10304800053481340334203400340434073405341F
:10305800023403342034003408340934043401348D
:1030680000340234FF345D34033400341B3421341B
:1030780000340134013401348334403401340434DD
:1030880020341634853400340034003400340034DD
:10309800003416340534003400340034003400346D
:1030A80000340734053483340334203400340234C4
:1030B8000734053404340334203400340434093428
:1030C8000434023400340134FF345D3402340034F3
:1030D800093421340034013401342234863407346D
:1030E8000034073405348634033420340034103473
:1030F80009340434033400340034FF34FD34133409
:1031080004340634413400340134013403340034C7
:103118001434FF34F734FF34FF34C034FF34C03480
:10312800FF34C034FF34C034FF340034003400347A
:103138000034003400341234013400340234FF34D3
:10314800FF34FF3440345E3404348E340234143493
:10315800013401340234033401340E340334583456
:1031680000342034003454340034453400345334AB
:103178000034543400340E340334583400342034CA
:103188000034543400344534003453340034543457
:1031980000340E34033458340034203400345434AA
:1031A8000034453400345334003454340034E334A8
:1031B8009834CD349834BF349834B13498340434C6
:0A31C8000334093404340034983451
:10394400640080010131890BA32C0034F00070085D
:103954000319AD2CAF2C0130B02C0030080001301D
:103964002300E7070030E83D0030E93D0030EA3D40
:1039740022006D08031DBF2CC02CCB2C0130F0009D
:103984007008E6076608031DC82CC92CCB2CFF3031
:10399400E60008003D001215EF30FD007D0890059B
:1039A4008E142200ED01ED0AE60175302000DD00E1
:1039B4000030DE000030DF000030E0000030E100C5
:1039C400E2009E318E269C310800F200F02CFC307F
:1039D40021009900903027009B00032D7208F0000D
:1039E400F1017108003A0319F82C032D7008003A0C
:1039F4000319E92C013A0319032D033A0319032D82
:103A0400032D08002200ED0174302000DD00003099
:103A1400DE000030DF000030E0000030E100E200B2
:103A24009E318E269D313D008E1012111D2DFB30CE
:103A3400FD007D0890051019202D212D192D22003F
:103A4400E6010800F100FC302000D3055311F20117
:103A5400F30172087107F000700886008701810184
:103A64000130F2070030F33D7308803AF0008030F3
:103A74007002031D3F2D15307202031C422D432D8D
:103A84002B2D710A86008701143081000800FC0088
:103A9400771D4D2D4E2D532DF0017C089E31CA26E5
:103AA4009D31F71C562D572D5D2DF001F00A7C0831
:103AB4009E31CA269D317C08983EF800F9010E30EB
:103AC400F93D7808FA007908FB007A0886007B083B
:103AD4008700770881000800A0309D3124259D319E
:103AE4002200E001E1011E30F70001309D3149253B
:103AF4009D311E30F70002309D3149259D311E3025
:103B0400F70003309D3149259D311E30F700043004
:103B14009D3149259D311E30F70006309D314925E0
:103B24009D310800F8007108F6007008F500780867
:103B3400F900AF2D75088600760887000108F700A4
:103B44000130F5070030F63D7908860087017708D3
:103B540081000130F4007408F9070130F2020030EA
:103B6400F33B720A031DBA2D730A031DBA2DBB2D34
:103B74009C2D08003D00181CC02DC12DE02D2000F7
:103B840058088600870180300106031DCA2DCB2DFD
:103B9400DE2D4D0886004E08870084300106031D83
:103BA400D42DD52DDE2D5808860087010C308100D8
:103BB40058088600870181173D001810DF30F00097
:103BC4007008900508002030200059020318EB2DDE
:103BD400EC2DED2D1B2E3D008E1CF12DF22DF32D21
:103BE4001B2E2200600861040319F92DFA2D022E00
:103BF4006008860061088700811B012E022E1B2E9F
:103C0400A0308C312B249D31F001F00AA030F1005A
:103C14001430F200013093315B239D31710822008E
:103C2400E1007008E0009331E0239D31913185215A
:103C34009D31080000309C31E7249E319531912557
:103C44009E31303021008C00F0308D00FF308E002A
:103C5400951324008C018D0123008C018D018E01AC
:103C640007302100950495111512951215178B171D
:103C74000530200095009631DA269E312030200050
:103C840059020318462E472E482E3D2E3D008E1C09
:103C94004C2E4D2E4E2E3D2E9D31E5259E313D2E32
:103CA4008C310C2C023020005606031D5A2E5B2E3C
:103CB4005F2E963134269E318D2ED60122006C085B
:103CC400031D652E662E8C2E20005108013EF60041
:103CD4000030523DF70076088600770887004030B0
:103CE40081004030F6000030F70051088600520889
:103CF400870042317608C03F7708C13F51088600EB
:103D0400520887000C308100510886005208870051
:103D140081178D2EEC010800A12E01309C31E7247F
:103D24009E31C92E02309C31E7249E31C92E9D312B
:103D34006E259E31C92E903104209E31C92E20005B
:103D44005E08003A0319AA2E7F3A0319C42EC92E1D
:103D54005D08013A0319992E033A0319C92E013A51
:103D640003199D2E063A0319C92E773A0319C92E51
:103D7400013A0319C92E073A0319942E013A03197B
:103D84008F2EC92E5D08FF3A0319C92EC92E0800CB
:103D9400F5002030F6007008F1000130F135890B90
:103DA400D02E7508F2000130F235FF3E031DD62EE9
:103DB40072357107F3000130F335FF3E031DDE2E2B
:103DC4007335F4007408F6077608860087018113BA
:103DD4007008031DEE2EEF2EF92E7535EB3E86008E
:103DE400013087007608C03F0030C13F012F753590
:103DF4004D3E860087017608C03F0030C13F7608FB
:103E04008600870101137608043E860087010117A6
:103E140008002000D701D4012200E801E701EC01E9
:103E24002000D6017F30EC004D0886004E08870044
:103E34006C08810504304D06CD0000304E06CE00DE
:103E44007F30EC004D0886004E0887006C08810521
:103E540004304D06CD0000304E06CE007F30EC001D
:103E640051088600520887006C088105CA01CB01FD
:103E7400CC012300E201E301E4019031A4209F314D
:103E840003302000DD000030DE000030DF000030B1
:103E9400E0000030E100E2009E318E269F31943133
:103EA400F7249F3108002D302200EB0020005A082F
:103EB400FD39031D5E2F5F2F992F5A363F39ED00D0
:103EC4000130ED35FF3E031D632F6D35203ED800D4
:103ED4005808D100FF39031D0030D20004305106C8
:103EE400D10000305206D200580886008701010C28
:103EF400890C0F390D3A031D802F812F952F5808F7
:103F0400023E86008701403FF000413FF100083047
:103F1400F2000030F30040309D3194259F319F31F1
:103F24000B279F31A52F9E3154269F31A52FFD309D
:103F34005A05ED0004306D06031DA12FA22FA52FF5
:103F44009131F8219F3108002200E801E701023095
:103F540020005606031DAF2FB02FD52F5108013E68
:103F6400F3000030523DF4007308860074088700A3
:103F740040308100B030F3000030F4005108860076
:103F84005208870042317308C03F7408C13F51088A
:103F94008600520887004830810051088600520884
:103FA40087008117FF2F4C084702031DDB2F4B08A6
:103FB40046020318DE2FDF2FE32F4708CC00460804
:103FC400CB00913114219F31B030F3000030F40064
:103FD40020004D0886004E08870042317308C03F18
:103FE4007408C13F4D0886004E08870048308100A0
:0C3FF4004D0886004E0887008117080069
:020000040001F9
:08000000FF3FFF3FFF3FFF3F00
:04000E00A40FCF1F4D
:00000001FF
