:0618080000008C310C2CE5
:101810007E148C317E10090020008C310F2C653035
:101820008400003085000B309B31A3238C31A8301D
:101830008400003085002B309B31A3238C317E1037
:1018400020009C317D2CF3007308073E8600870141
:101850008101730A860087013F30810520000C0E4C
:1018600001399B31A9238C31F100730A860087016D
:1018700001087106FE397106810020000C0E890CEA
:1018800001399B31A9238C31F100730A860087014D
:10189000F10D01087106FD3971068100730A860099
:1018A0008701811221004219562C572CA22C2000AE
:1018B0000E0CF100F10C710C01399B31A9238C3114
:1018C000F200730886008701F20D01087206FD39E7
:1018D00072068100730886008701011020000E0E39
:1018E000890C890C01399B31A9238C31F1007308D3
:1018F00086008701F10DF10D01087106FB397106B3
:1019000081007308860087018111730886008701B2
:10191000011273088600870181127308860087010F
:1019200001137308860087018113730A86008701FB
:101930000111730A860087018111730A86008701ED
:101940000112F02C421DA52CA62CF02C7308860049
:101950008701811020000E0CF100F10C710C01398F
:101960009B31A9238C31F20073088600870101089E
:101970007206FE3972068100730886008701011124
:1019800020000E0E890C890C01399B31A9238C3162
:10199000F100730886008701F10DF10DF10D0108CA
:1019A0007106F739710681007308860087010112FC
:1019B000730886008701811273088600870101136E
:1019C0007308860087018113730A8600870101115D
:1019D000730A860087018111730A8600870101124C
:1019E00020000E0D0E0D01399B31A9238C31003AD8
:1019F0000319FB2CFC2C022D7308033E8600870183
:101A00008101202D20000D0E890C890C01399B319C
:101A1000A9238C31003A03190E2D0F2D182DFF30FC
:101A2000F1007308033E8600870171088100202DB4
:101A30008030F1007308033E860087017108810041
:101A400020000D0E890C01399B31A9238C31003AFD
:101A500003192B2D2C2D322D7308043E860087018F
:101A600081014F2D20000D0D0D0D01399B31A92352
:101A70008C31003A03193D2D3E2D472DFF30F100EA
:101A80007308043E86008701710881004F2D803065
:101A9000F1007308043E8600870171088100083058
:101AA000F1007308023E86008701710881008030D2
:101AB000F1007308053E86008701710881008030BF
:101AC000F1007308063E86008701710881007C2EB4
:101AD0007308033E860087010108031D702D712DD8
:101AE000842D7308043E8600870180300106031DA3
:101AF0007A2D7B2D842D7308023E86008701010814
:101B0000F03906388100422E7308033E86008701B3
:101B10000108031D8C2D8D2D9F2D7308043E86001A
:101B200087010108031D952D962D9F2D7308023EF8
:101B3000860087010108F03907388100422E7308BA
:101B4000033E8600870180300106031DA82DA92DC4
:101B5000B92D7308043E860087010108031DB12DCD
:101B6000B22DB92D7308023E86008701F030810541
:101B7000422E7308033E86008701010A031DC12D12
:101B8000C22DD42D7308043E860087010108031D71
:101B9000CA2DCB2DD42D7308023E86008701010883
:101BA000F03901388100422E7308033E8600870118
:101BB000010A031DDC2DDD2DF02D7308043E860087
:101BC000870180300106031DE62DE72DF02D7308F7
:101BD000023E860087010108F03902388100422E5A
:101BE0007308033E86008701010A031DF82DF92DB5
:101BF0000B2E7308043E86008701010A031D012E87
:101C0000022E0B2E7308023E860087010108F03970
:101C100003388100422E7308033E8600870180301E
:101C20000106031D142E152E272E7308043E860070
:101C30008701010A031D1D2E1E2E272E7308023E4A
:101C4000860087010108F03904388100422E7308AC
:101C5000033E860087010108031D2F2E302E422EE1
:101C60007308043E86008701010A031D382E392EB1
:101C7000422E7308023E860087010108F0390538BC
:101C80008100422E8030F1007308033E86008701F8
:101C9000710881008030F1007308043E86008701DE
:101CA00071088100912E7308033E860087010108A8
:101CB000F1007308053E86008701710881007308F2
:101CC000043E860087010108F1007308063E860085
:101CD0008701710881008030F1007308033E86009F
:101CE0008701710881008030F1007308043E86008E
:101CF000870171088100912E210042080339F1000B
:101D0000F2017208003A0319862E912E7108003AEA
:101D10000319682D013A0319912E033A0319532E22
:101D2000912E080020004203031D972E982EAE2E00
:101D300040081F39003A031D9E2E9F2EAE2E210013
:101D4000B117033020004106031DA72EA82EAC2E8C
:101D50002100CC01CC0AAE2E2100CC01200042088B
:101D6000031DB32EB42EDF2F40081F39023A031D86
:101D7000BA2EBB2EDF2F44080F39003A0319C12EAB
:101D8000C22EDF2F44080F39D60002305602031846
:101D9000CA2ECB2EDF2F20306E06031DD02ED12E63
:101DA000DF2F2100B1172000C41BD72ED82EEC2E18
:101DB00044080F390907B83E86008701403FDB0021
:101DC000413FDC0044080F39BE3E86008701010810
:101DD000D6005608DA00FF2E44080F390907653E81
:101DE00086008701403FDB00413FDC0044080F399B
:101DF000C03E860087010108D6005608DA005A184E
:101E0000022F032F0E2FFB30D600FF30D7005B08C8
:101E10005605DB005C085705DC00142F04305B041A
:101E2000DB0000305C04DC00C41B172F182F232FAD
:101E300044080F390907B83E860087015B08C03F98
:101E40005C08C13F2D2F44080F390907653E860005
:101E500087015B08C03F5C08C13F03304106031D9A
:101E6000322F332F572F5B0886005C088700811FB5
:101E70003A2F3B2F4C2FC41B3E2F3F2F462F440899
:101E80000F39BE3E8600870181144C2F44080F395C
:101E9000C03E8600870181145B0886005C088700CD
:101EA00001155B0886005C0887008117DF2F04306E
:101EB0005B06DB0000305C06DC005B0886005C082B
:101EC0008700811F642F652F822F7F30D6005B082B
:101ED00086005C088700560881055B0886005C0860
:101EE000870001170530D0000030D1005C08D30016
:101EF0005B08D2000230D4000030D5009D312A2585
:101F00008E31872F5B0886005C088700011704303C
:101F100020005B06DB0000305C06DC00DA18912F45
:101F2000922F9A2F5B0886005C088700811F992FEB
:101F30009A2FC32FC41B9D2F9E2FA52F44080F3906
:101F4000BE3E860087018110AB2F44080F39C03E8A
:101F50008600870181103B30D6005B0886005C0854
:101F60008700560881050530D0000030D1005C089C
:101F7000D3005B08D2000230D4000030D5009D3180
:101F80002A258E31CB2F3B30D6005B0886005C08BB
:101F9000870056088105200044080F39983ED60076
:101FA000D7010E30D73D5608D8005708D900FE306B
:101FB000D600580886005908870056088105080091
:101FC0003D001215EF302000D60056083D00900568
:101FD0008E142100CB01CB0AC30175302000D00044
:101FE0000030D1000030D2000030D3000030D400E7
:0A1FF000D5009D312A258F3108002D
:10200400F2000B28FC3021009900903027009B003F
:102014001E287208F000F1017108003A0319132810
:102024001E287008003A03190428013A03191E28CF
:10203400033A03191E281E28080021004708031D1F
:102044002428252895280130F0007008C700460888
:10205400031D2D282E2895280130F0007008C60095
:10206400023020006C06031D382839284B286508E7
:10207400860066088700413181016508860066088C
:10208400870048308100650886006608870081174C
:1020940095286C03031D4F28502895282100C90159
:1020A4000830F00020006D0A860087017008810066
:1020B4004030F0000030F1006D08023E86008701D8
:1020C4007008C03F7108C13F0430F0006D088600FD
:1020D4008701700881006D0886008701811721003F
:1020E400C901C90A20006908013EF00000306A3DB8
:1020F400F1007008860071088700083081004030C4
:10210400F0000030F100690886006A088700423157
:102114007008C03F7108C13F690886006A088700DB
:102124008030810095280800200065088600660834
:1021340087000030011B0130F50004306506E5001E
:1021440000306606E60008306E06031DAA28AB2898
:10215400BF2842087F393D00960016080319B328AA
:10216400B428BA281030F30073082000EE00BF280A
:102174000430F30073082000EE006C03031DC32831
:10218400C42807294830F3000030F40065088600AD
:102194006608870042317308C03F7408C13F9F310D
:1021A40089279031023021004E06031DDA28DB28EE
:1021B400E82820006508860066088700043081004E
:1021C400650886006608870081170F297508031DB6
:1021D400EC28ED28FA2820006508860066088700A8
:1021E40048308100650886006608870081170F293A
:1021F40020006508860066088700083081006508AD
:1022040086006608870081170F292100AA1F0B2961
:102214000C290D29AA132000EC0108002000400E0F
:10222400890C0339003A0319182919295E298929C7
:102234002100B11708302000DD005D08EE00892977
:1022440092318B229131892991318A2191318929C5
:10225400D2302100AF000030B0003114B201B20A14
:10226400B11789299E31AA26913189298E31922666
:10227400913189294408D13E2100AF000030B000DB
:102284002F292100B11720004208DD004408D13E67
:10229400860087015D08810089290230D000003062
:1022A400D1000030D2000030D3000030D400D5007B
:1022B4009D312A25913189294108DD00DE015E081E
:1022C400003A0319662989295D08003A031934295B
:1022D400013A03193829023A03193829063A03192D
:1022E4001A29033A03192229013A03194F290F3AEB
:1022F40003192A29013A03192629033A03193C2907
:10230400013A03194329073A03198929892908003D
:102314002100B1170E302000D8009930D700D90120
:10232400570886005808870081010130D70700301C
:10233400D83D0130D6005608D90759080319A329F6
:10234400A42992290030F000F1002030F20000307E
:10235400F30020309431352491313D000E172000D4
:10236400DA015A08C03E8600870181015A08BE3E40
:102374008600870181010130D6005608DA07023051
:102384005A02031CC629C729B3290030F000F10002
:102394000130F2000030F300D13094313524913112
:1023A4003D000E1328302000E5000030E600203008
:1023B400D6005608ED006D08E900FF39031D003012
:1023C400EA004208D60056082100D2005208031D34
:1023D400EC29ED29F32910302000D6005608EE0030
:1023E400082A01302000D0000030D100D230D200C1
:1023F4000030D3000130D4000030D5009D312A25AF
:10240400913120302000D6005608EE000800F70075
:10241400700803190E2A0F2A182A7735653E86009C
:102424008701403FF800413FF900202A7735B83E44
:1024340086008701403FF800413FF900780879049D
:10244400031D252A262A292AF001F1018A2A710866
:10245400F3000030F40078088600790887004231E0
:102464007308C03F7408C13F7808013EF300003090
:10247400793DF400730886007408870072088100AF
:102484004030F300780886007908870073088105D6
:10249400780886007908870081157808860079080D
:1024A4008700811770080319582A592A702A77352A
:1024B400653E86008701403FF300413FF40004304D
:1024C4007306F50000307406F6007735653E860025
:1024D40087017508C03F7608C13F862A7735B83E24
:1024E40086008701403FF300413FF4000430730647
:1024F400F50000307406F6007735B83E8600870193
:102504007508C03F7608C13F7908F1007808F000EB
:102514000800803020004006031D912A922A0F2BC8
:10252400C030F00070082100B100FB2AB630210051
:10253400AF009830B0001230B2000030B3000F2B5F
:102544004208031DA62AA72AD62A4208F000F10150
:10255400F035F10DD230700784009830713D85005C
:10256400003F2100AF00013FB0003008F1002F0808
:10257400F00002307007840071080318710A8500A6
:102584000008F2007208B2003008F1002F08F000D1
:1025940003307007840071080318710A850000086D
:1025A400F2007208B3000F2B2100B1010F2B03308E
:1025B40042020318DE2ADF2AD62A4208F000F1017B
:1025C400F035F10DC830700784009830713D8500F6
:1025D400003F2100AF00013FB0002F088400300805
:1025E40085000008F000F1017008B2007108B30022
:1025F4000F2B20004308F000F1017108003A031981
:10260400042BD62A7008013A0319982A033A0319AD
:10261400A22A013A0319D92AD62A080020000C0E4E
:1026240001399B31A9239331003A03191A2B1B2B2F
:10263400962B20000E0D0E0D01399B31A9239331E9
:10264400003A0319262B272B962B0B11053020005B
:102654009500F301F4017F2B0B1D312B322B7F2BC3
:102664000130F3070030F43D00307402FA300319EE
:102674007302031C3E2B3F2B7B2B4D2B4208FC3952
:102684000138C200622B4208FC390238C200622BB6
:10269400FC30C205622B210042080339F100F2012B
:1026A4007208003A0319572B622B7108003A031978
:1026B400402B013A0319452B033A03194A2B622B89
:1026C400F301F40120000C0E01399B31A92393314D
:1026D400003A03196E2B6F2B7B2B20000E0D0E0D71
:1026E40001399B31A9239331003A031D7A2B7B2BAB
:1026F400642B0B1105302000950020000C0E0139CD
:102704009B31A9239331003A0319892B8A2B962BE9
:1027140020000E0D0E0D01399B31A9239331003A8F
:10272400031D952B962B2E2B08003D000E12210025
:10273400B11B9D2B9E2BE52BAA1FA12BA22BB42BE7
:102744000230F50075082000EC0021004408031D48
:10275400AC2BAD2BB02B9E31492693312100C60101
:10276400C701342C20006908013EF50000306A3DA1
:10277400F60075088600760887000830810040302E
:10278400F5000030F600690886006A0887004231C7
:102794007508C03F7608C13F690886006A0887004B
:1027A4000C308100690886006A0887008117650873
:1027B4008600660887000430810065088600660884
:1027C40087008117342C2000C01FE92BEA2B022C30
:1027D400EC01EC0A21004508031DF12BF22BF52B2B
:1027E4009E31492693312100C601C70120006B08A0
:1027F400031DFD2BFE2B342C90311F209331342CE0
:102804000230F5007508EC006908013EF50000305F
:102814006A3DF60075088600760887000830810056
:102824004030F5000030F600690886006A08870029
:1028340042317508C03F7608C13F690886006A08BE
:10284400870004308100690886006A0887008117C0
:102854002100C601C70120006B08031D322C332C54
:10286400342CFE2B0800F8007808F4007408F900F2
:1028740072087304031D3F2C402C412CD82C700883
:10288400F400790886008701740881007008F40058
:1028940072087907F5007508FF3E86008701740801
:1028A40081000030730203300319720203185B2C99
:1028B4005C2C5D2CD82C7008F400790A8600870102
:1028C400740881007008F4007908023E86008701CC
:1028D400740881007008F40072087907F50075081F
:1028E400FE3E86008701740881007008F4007208B7
:1028F4007907F5007508FD3E86008701740881009C
:102904000030730207300319720203188A2C8B2CCF
:102914008C2CD82C7008F4007908033E86008701BB
:10292400740881007008F40072087907F5007508CE
:10293400FC3E860087017408810000307302093070
:10294400031972020318A72CA82CA92CD82C7909D6
:10295400F4007A09F500F40A0319F50A0330740542
:10296400F60000307505F7007608F4007408F907DE
:102974007608F2027708F33BFC30F205FF30F305EA
:10298400D22C7008F400790886008701740881004D
:102994000130F2020030F33B0130F4007408F9070F
:1029A40072087304031DD72CD82CC32C08002100F3
:1029B40012113D009301900198010E30F2009930FC
:1029C400F100F3017108860072088700810101306B
:1029D400F1070030F23D0130F0007008F30773088E
:1029E4000319F52CF62CE42C16303D0091009F3091
:1029F40097007B309200F4017408F0000130F03548
:102A0400FF3E031D012D7035203E860087010030F6
:102A1400C03F0030C13FC23FC33F0130F0007008E7
:102A2400F40708307402031C182D192DFE2C3D00E8
:102A34000E1796010E120E13F730F0007008900571
:102A44002100B101AA01AB01AC013D0090192B2D6D
:102A54002C2D1E2D0130F00070082100C70001301C
:102A6400F0007008C600C501C401CB01F40174353F
:102A7400653E860087010030C03FC13F7435B83ED3
:102A8400860087010030C03FC13F7408C03E860005
:102A9400870181017408BE3E8600870181010130EF
:102AA400F0007008F40702307402031C5A2D5B2DE9
:102AB400392D28302000E5000030E60016303D00B6
:102AC400980000302000A3004030A2000830A1008C
:102AD4000430F0007008A000A0172100D2010030DB
:102AE400B7000030B6000030B5000030B400C301B8
:102AF4002000EE010800200040081F39013A0319A4
:102B0400842D852D862D212E440803198A2D8B2D85
:102B14008C2D212E06304106031D912D922DC72D9B
:102B2400B42D21005203031D982D992DC72D8C30EF
:102B3400AF009830B0000930B2000030B300C030AC
:102B4400F0007008B100C72D00302100AF009830AC
:102B5400B0005630B2000030B300C030F00070084E
:102B6400B100C72D4308F000F1017108003A0319C0
:102B7400BC2DC72D7008213A0319932D033A03196C
:102B8400A62D013A0319C72DC72D2000400E890C2C
:102B94000339013A0319CF2DD02D052E212ED03023
:102BA4002100AF000030B0000130B2000030B300AB
:102BB400C130F0007008B100212E8030F0007008A0
:102BC4002100B10020004308F00070082100D0006B
:102BD400212ECF302100AF000030B0000130B20010
:102BE4000030B3008130F0007008B100212E803035
:102BF400F00070082100B10020004208F0007008C5
:102C04002100CF00212E4108F000F1017108003AA3
:102C140003190D2E212E7008013A0319212E033AAF
:102C24000319D12D013A0319EB2D0A3A0319212E68
:102C3400033A0319DF2D013A0319F92D212E080057
:102C440020006D0886008701413FF5007508F200F9
:102C5400F301730821002C02031D322E72082B028B
:102C64000318352E362E3A2E2B08F2007208F50082
:102C74007508F200F3017208AB027308AC3BF4016F
:102C8400562E7408483E860087010108F200280881
:102C940086008701720881000130F2007208A807DB
:102CA4000130F2007208F40775087402031C5B2EED
:102CB4005C2E432E2B082C040319612E622E9B2EAE
:102CC40020006908013EF20000306A3DF3007208FA
:102CD400860073088700083081004830F200003015
:102CE400F300690886006A08870042317208C03F11
:102CF4007308C13F6D0886008701011B822E832E55
:102D04008F2E690886006A088700483081006908A8
:102D140086006A0887008117CB2E690886006A0836
:102D2400870008308100690886006A0887008117D7
:102D3400CB2E20006908013EF20000306A3DF3000A
:102D44007208860073088700083081004030F20062
:102D54000030F300690886006A088700423172086F
:102D6400C03F7308C13F690886006A0887000430C1
:102D74008100690886006A08870081172100AA1368
:102D840020006B08031DC72EC82ECB2E90311F20A8
:102D94009631080020006E08031DD12ED22EE42E99
:102DA4003D008E019201163091009F3097007B30D8
:102DB4009200DD2E8E158E1DE02EE12EDC2E2000DD
:102DC400EE01EE0A6E03031DE82EE92EF72E3D00F8
:102DD4008E1AED2EEE2EF72E900192011214121679
:102DE40002302000E2006208EE003D00101DFB2EC0
:102DF400FC2E092F121DFF2E002F092FFB3020005F
:102E0400E20062083D0090059B31DD2396313D00D0
:102E14008E1C0D2F0E2F112F20001211FF2F101CAE
:102E2400142F152F262F121C182F192F262F9431EB
:102E3400D924963104302000E2006208EE00FE300E
:102E4400E20062083D009005101E292F2A2F312F21
:102E5400121E2D2F2E2F312F8F31E02796313D005A
:102E6400101F352F362F632F121F392F3A2F4A2F59
:102E740073302000D0000030D1000030D200003088
:102E8400D3000130D4000030D5009D312A2596317D
:102E9400BF302000E20062083D0090059B31C12351
:102EA4009631210048080319582F592F5B2F013000
:102EB400C8024808031D5F2F602F632F90311F2025
:102EC40096313D00901E672F682F6F2F921E6B2F37
:102ED4006C2F6F2F9C31242496313D00901C732F4E
:102EE400742F8A2F921C772F782F8A2FFF3020007F
:102EF400D0007F30D1000030D2000030D300013048
:102F0400D4000030D5009D312A2596313D0093012F
:102F1400043020006E020318902F912F932F12116A
:102F2400FF2F3D00921D972F982FFD2F2000E401C5
:102F34003D00901D9E2F9F2FFD2F0F082000E200C3
:102F44006208EF006F0CE200E20C620C0F39E30040
:102F540063082100CA00F7302000E20062083D0047
:102F6400900520006F19B72FB82FC92F21004A08E8
:102F7400BE3E86008701010801392000E2000130CD
:102F8400E20601086206FE3962068100D92F21009B
:102F94004A08C03E86008701010801392000E2008A
:102FA4000130E20601086206FE3962068100210052
:102FB4004A08031DDE2FDF2FE32F9D31F3259631C1
:102FC400F22F72302000D0000030D1006F30D200D8
:102FD4000030D3000030D400D5009D312A2596312D
:102FE40001302000E2006208E40704306402031C9C
:102FF400FC2FFD2F9A2F20001211080005340134F4
:1030040009340534A1340134153400342534013431
:103014003534003445340134753401349534103476
:103024000534093419340134293410348134023418
:10303400053401342534073446343B3401347534C3
:103044000434953401346534143409343934813406
:1030540042346534003495340134813401342634E7
:10306400FF3400344634FF34003409343034093436
:1030740031340934323409343534753408349534F0
:1030840004348134023406340034FF3409342034E7
:1030940095340134813402340A342134263495348D
:1030A400083491340234C0342434033450340034AA
:1030B4004F3400344B3400344B3400344534003442
:1030C4004E34003420340034433400344F3400345C
:1030D4004E34003454340034523400344F34003409
:1030E4004C3400344C34003445340034523400340D
:1030F4000934023422340034013401340034C0343D
:1031040032340934043400340034013403340034D8
:1031140000340034093421341134013400340134CE
:1031240022345634003407340534813403344034B3
:1031340000340A341A340334483400344F3400342D
:1031440052340034493400342034003443340034DD
:103154004F3400342E3400342C3400344C340034D6
:10316400543400344434003412340134003402340E
:1031740000340034003408340D340F3492340034F5
:10318400003401340134023403340134CE3498342D
:103194009C34983456349834043403340934043455
:0431A4007A349834AD
:10373C00FC302100C20542110800640080010131F7
:10374C00890BA42B0034F00070080319AE2BB02B9E
:10375C000130B12B003008002100BC01BD011A3032
:10376C00FD007D08F70001309B31FF239B319B311D
:10377C009E239B31080001302100B4070030B53D79
:10378C000030B63D0030B73D4B08031DCE2BCF2B80
:10379C00DC2B0130F0007008C3074308031DD72B46
:1037AC00D82BDC2BFF30F0007008C3000800210080
:1037BC00CB0174302000D0000030D1000030D2009A
:1037CC000030D3000030D400D5009D312A259B3128
:1037DC003D008E101211F82BFB302000D60056083D
:1037EC003D0090051019FB2BFC2BF22B2100C30183
:1037FC000800FC00771D032C042C092CF0017C081C
:10380C009D3166259B31F71C0C2C0D2C132CF001D3
:10381C00F00A7C089D3166259B317C08983EF800A7
:10382C00F9010E30F93D7808FA007908FB007A08A6
:10383C0086007B0887007708810008003D00181C73
:10384C00282C292C4A2C20006D08860087018030FA
:10385C000106031D322C332C482C650886006608A3
:10386C00870084300106031D3C2C3D2C482C0C3069
:10387C00F0006D0886008701700881006D088600D5
:10388C00870181173D001810DF30F000700890059B
:10389C000800F8007108F6007008F5007808F400CC
:1038AC007408F900702C75088600760887000108EA
:1038BC00F4007408F7000130F5070030F63D770886
:1038CC00F400790886008701740881000130F40047
:1038DC007408F9070130F2020030F33B720A031D41
:1038EC007B2C730A031D7B2C7C2C592C080000307C
:1038FC00903102209C319431D9249C3130302100FC
:10390C008C00F0308D00FF308E00951324008C015C
:10391C008D0123008C018D018E010730210095044F
:10392C0095111512951215178B170530200095005F
:10393C009631CC269C31203020006E020318A72C27
:10394C00A82CA92C9E2C3D008E1CAD2CAE2CAF2C83
:10395C009E2C9C31EF249C319E2C8C310C2C0230F3
:10396C0020006C06031DBB2CBC2CC02C96312226CF
:10397C009C31EE2CEC0121004908031DC62CC72CF0
:10398C00ED2C20006908013EF60000306A3DF7007E
:10399C007608860077088700083081004030F600F2
:1039AC000030F700690886006A0887004231760803
:1039BC00C03F7708C13F690886006A0887000C3051
:1039CC008100690886006A0887008117EE2CC901FE
:1039DC000800203020006E020318F52CF62CF72C72
:1039EC00292D3D008E1CFB2CFC2CFD2C292D21009F
:1039FC003C083D040319032D042D0C2D3C088600B6
:103A0C003D088700811B0B2D0C2D292DA0308C31EE
:103A1C0023249C31F001F00AA030FA007A08F1005E
:103A2C000830FB007B08F2000130923109229C31F6
:103A3C0071082100BD007008BC00933110239C312B
:103A4C009F3116279C3108003D2D0130903102200A
:103A5C009D31652D0230903102209D31652D9B31B9
:103A6C00B2239D31652D95317D259D31652D20002D
:103A7C005108003A0319462D7F3A0319602D652D24
:103A8C005008013A0319352D033A0319652D013AF3
:103A9C000319392D063A0319652D773A0319652D4B
:103AAC00013A0319652D073A0319302D013A031910
:103ABC002B2D652D5008FF3A0319652D652D080037
:103ACC00F5002030F1007108F6007008F1000130AB
:103ADC00F135890B6E2D7508F2000130F235FF3E81
:103AEC00031D742D72357107F3000130F335FF3E61
:103AFC00031D7C2D7335F4007408F60776088600D8
:103B0C00870181137008031D8C2D8D2D962D753515
:103B1C00B83E860087017608C03F0030C13F9E2D1D
:103B2C007535653E860087017608C03F0030C13F81
:103B3C0076088600870101137608043E860087010B
:103B4C00011708002100CE012000EB012100C50166
:103B5C00C401C9012000EC017F30DF00650886003C
:103B6C00660887005F08810504306506E5000030B3
:103B7C006606E6007F30DF00650886006608870071
:103B8C005F08810504306506E50000306606E60036
:103B9C007F30DF00690886006A0887005F088105AE
:103BAC002100B101B201B301AA01AB01AC01913109
:103BBC0010219D3103302000D0000030D1000030A6
:103BCC00D2000030D3000030D400D5009D312A251E
:103BDC009D31933197239D3108002D302000E0005A
:103BEC0060082100C80020006F08FD39031DFF2D5F
:103BFC00002E3C2E6F363F39E0000130E035FF3EA1
:103C0C00031D042E6035203EE1006108ED006D08B7
:103C1C00E900FF39031D0030EA0004306906E900B1
:103C2C0000306A06EA006D0886008701010C890CD9
:103C3C000F390D3A031D232E242E382E6D08023E0B
:103C4C0086008701403FF000413FF1000830F20050
:103C5C000030F30040309C314F249D319D31A8251C
:103C6C009D31482E9C31B5249D31482EFD306F0579
:103C7C00E00004306006031D442E452E482E903182
:103C8C0096209D3108002100C501C401023020009E
:103C9C006C06031D522E532E782E6908013EF3003C
:103CAC0000306A3DF4007308860074088700083001
:103CBC0081004830F3000030F400690886006A087F
:103CCC00870042317308C03F7408C13F6908860001
:103CDC006A08870048308100690886006A088700F6
:103CEC008117A92E2100330820004702031D822EC4
:103CFC0021003208200046020318852E862E8D2EB8
:103D0C0047082100B300200046082100B2009F3173
:103D1C0089279E314830F3000030F40020006508FC
:103D2C0086006608870042317308C03F7408C13FA3
:103D3C0065088600660887004830810065088600A3
:103D4C0066088700811708002000C801C901F32EFE
:103D5C002100B1174C03031DB42EB52E072F2000E4
:103D6C00C814072F2100B117072F2100B11720000D
:103D7C0044080F39003A0319C42EC52E072FC41B53
:103D8C00C82EC92ED42E44080F390907B83E860018
:103D9C008701403FF200413FF300DE2E44080F390B
:103DAC000907653E86008701403FF200413FF30062
:103DBC007208860073088700811FE52EE62E072FF8
:103DCC007208860073088700011DED2EEE2E072F5A
:103DDC000130F0007008C800072F40081F39F000B0
:103DEC00F1017108003A0319FC2E072F7008003AF4
:103DFC000319AE2E013A0319B82E033A0319BB2E40
:103E0C00072F2100B11F0B2F0C2F152F4830AF009F
:103E1C000030B00031140230F0007008B20008001D
:103E2C0020000C0E01399B31A9239F31003A031954
:103E3C00202F212F882F20000D0E890C890C013981
:103E4C009B31A9239F31003A03192D2F2E2F882F38
:103E5C000B11053020009500F101F201702F0B1DA4
:103E6C00382F392F702F0130F1070030F23D003020
:103E7C007202FA3003197102031C452F462F6C2F66
:103E8C0003102100421D031403184D2F502F210045
:103E9C004215522F21004211F101F20120000C0EAB
:103EAC0001399B31A9239F31003A03195E2F5F2FF3
:103EBC006C2F20000D0E890C890C01399B31A92324
:103ECC009F31003A031D6B2F6C2F542F0B110530B3
:103EDC002000950020000C0E01399B31A9239F3145
:103EEC00003A03197A2F7B2F882F20000D0E890C96
:103EFC00890C01399B31A9239F31003A031D872F6F
:103F0C00882F352F08000830F0007008F2000030C0
:103F1C00210033020830031932020318962F972F11
:103F2C00AC2F3208F0007008F2004E08031D9F2FD2
:103F3C00A02FA32FCE01CE0AAC2F4E03031DA72F0B
:103F4C00A82FAC2F0230F0007008CE007208F000E1
:103F5C00F1017008B2027108B33B20006508013E04
:103F6C00F0000030663DF100700886007108870093
:103F7C00720881004830F00070082100CD00311823
:103F8C00C82FC92FFA2FDF2F2F0884003008850087
:103F9C000008F0004D088600870170088100013090
:103FAC00AF070030B03D0130F0007008CD07013094
:103FBC00F2027208031DE32FE42FCA2FFF2F2F08E4
:103FCC008400300885000008F0004D088600870149
:103FDC00700881000130AF070030B03D0130F000B7
:103FEC007008CD070130F2027208031DFE2FFF2F5F
:043FFC00E52F0800A5
:020000040001F9
:08000000FF3FFF3FFF3FFF3F00
:04000E00A40FCF1F4D
:00000001FF
